{
  "_format": "hh-sol-artifact-1",
  "contractName": "Comments",
  "sourceName": "contracts/Comments.sol",
  "abi": [
    {
      "inputs": [
        {
          "internalType": "string",
          "name": "text",
          "type": "string"
        }
      ],
      "name": "addComment",
      "outputs": [],
      "stateMutability": "nonpayable",
      "type": "function"
    },
    {
      "inputs": [
        {
          "internalType": "uint256",
          "name": "",
          "type": "uint256"
        }
      ],
      "name": "comments",
      "outputs": [
        {
          "internalType": "uint256",
          "name": "id",
          "type": "uint256"
        },
        {
          "internalType": "address",
          "name": "commenter",
          "type": "address"
        },
        {
          "internalType": "string",
          "name": "text",
          "type": "string"
        },
        {
          "internalType": "uint256",
          "name": "timestamp",
          "type": "uint256"
        }
      ],
      "stateMutability": "view",
      "type": "function"
    },
    {
      "inputs": [],
      "name": "nextCommentId",
      "outputs": [
        {
          "internalType": "uint256",
          "name": "",
          "type": "uint256"
        }
      ],
      "stateMutability": "view",
      "type": "function"
    }
  ],
  "bytecode": "0x608060405234801561001057600080fd5b506108d1806100206000396000f3fe608060405234801561001057600080fd5b50600436106100415760003560e01c8063843b4386146100465780638ebb4c1514610062578063d0bdacbe14610095575b600080fd5b610060600480360381019061005b9190610320565b6100b3565b005b61007c600480360381019061007791906103a3565b6101d3565b60405161008c94939291906104b0565b60405180910390f35b61009d6102ab565b6040516100aa91906104fc565b60405180910390f35b604051806080016040528060005481526020013373ffffffffffffffffffffffffffffffffffffffff16815260200183838080601f016020809104026020016040519081016040528093929190818152602001838380828437600081840152601f19601f8201169050808301925050505050505081526020014281525060016000805481526020019081526020016000206000820151816000015560208201518160010160006101000a81548173ffffffffffffffffffffffffffffffffffffffff021916908373ffffffffffffffffffffffffffffffffffffffff16021790555060408201518160020190816101aa9190610752565b50606082015181600301559050506000808154809291906101ca90610853565b91905055505050565b60016020528060005260406000206000915090508060000154908060010160009054906101000a900473ffffffffffffffffffffffffffffffffffffffff169080600201805461022290610575565b80601f016020809104026020016040519081016040528092919081815260200182805461024e90610575565b801561029b5780601f106102705761010080835404028352916020019161029b565b820191906000526020600020905b81548152906001019060200180831161027e57829003601f168201915b5050505050908060030154905084565b60005481565b600080fd5b600080fd5b600080fd5b600080fd5b600080fd5b60008083601f8401126102e0576102df6102bb565b5b8235905067ffffffffffffffff8111156102fd576102fc6102c0565b5b602083019150836001820283011115610319576103186102c5565b5b9250929050565b60008060208385031215610337576103366102b1565b5b600083013567ffffffffffffffff811115610355576103546102b6565b5b610361858286016102ca565b92509250509250929050565b6000819050919050565b6103808161036d565b811461038b57600080fd5b50565b60008135905061039d81610377565b92915050565b6000602082840312156103b9576103b86102b1565b5b60006103c78482850161038e565b91505092915050565b6103d98161036d565b82525050565b600073ffffffffffffffffffffffffffffffffffffffff82169050919050565b600061040a826103df565b9050919050565b61041a816103ff565b82525050565b600081519050919050565b600082825260208201905092915050565b60005b8381101561045a57808201518184015260208101905061043f565b60008484015250505050565b6000601f19601f8301169050919050565b600061048282610420565b61048c818561042b565b935061049c81856020860161043c565b6104a581610466565b840191505092915050565b60006080820190506104c560008301876103d0565b6104d26020830186610411565b81810360408301526104e48185610477565b90506104f360608301846103d0565b95945050505050565b600060208201905061051160008301846103d0565b92915050565b7f4e487b7100000000000000000000000000000000000000000000000000000000600052604160045260246000fd5b7f4e487b7100000000000000000000000000000000000000000000000000000000600052602260045260246000fd5b6000600282049050600182168061058d57607f821691505b6020821081036105a05761059f610546565b5b50919050565b60008190508160005260206000209050919050565b60006020601f8301049050919050565b600082821b905092915050565b6000600883026106087fffffffffffffffffffffffffffffffffffffffffffffffffffffffffffffffff826105cb565b61061286836105cb565b95508019841693508086168417925050509392505050565b6000819050919050565b600061064f61064a6106458461036d565b61062a565b61036d565b9050919050565b6000819050919050565b61066983610634565b61067d61067582610656565b8484546105d8565b825550505050565b600090565b610692610685565b61069d818484610660565b505050565b5b818110156106c1576106b660008261068a565b6001810190506106a3565b5050565b601f821115610706576106d7816105a6565b6106e0846105bb565b810160208510156106ef578190505b6107036106fb856105bb565b8301826106a2565b50505b505050565b600082821c905092915050565b60006107296000198460080261070b565b1980831691505092915050565b60006107428383610718565b9150826002028217905092915050565b61075b82610420565b67ffffffffffffffff81111561077457610773610517565b5b61077e8254610575565b6107898282856106c5565b600060209050601f8311600181146107bc57600084156107aa578287015190505b6107b48582610736565b86555061081c565b601f1984166107ca866105a6565b60005b828110156107f2578489015182556001820191506020850194506020810190506107cd565b8683101561080f578489015161080b601f891682610718565b8355505b6001600288020188555050505b505050505050565b7f4e487b7100000000000000000000000000000000000000000000000000000000600052601160045260246000fd5b600061085e8261036d565b91507fffffffffffffffffffffffffffffffffffffffffffffffffffffffffffffffff82036108905761088f610824565b5b60018201905091905056fea264697066735822122059d7871ef75702ff516d103e4e84a468e5fca49292ad6057cf666c9a9f45fd0d64736f6c63430008180033",
  "linkReferences": {},
  "deployedLinkReferences": {}
}