{
  "_format": "hh-sol-artifact-1",
  "contractName": "CreateNft",
  "sourceName": "contracts/CreateNft.sol",
  "abi": [
    {
      "inputs": [],
      "stateMutability": "nonpayable",
      "type": "constructor"
    },
    {
      "inputs": [],
      "name": "ERC721EnumerableForbiddenBatchMint",
      "type": "error"
    },
    {
      "inputs": [
        {
          "internalType": "address",
          "name": "sender",
          "type": "address"
        },
        {
          "internalType": "uint256",
          "name": "tokenId",
          "type": "uint256"
        },
        {
          "internalType": "address",
          "name": "owner",
          "type": "address"
        }
      ],
      "name": "ERC721IncorrectOwner",
      "type": "error"
    },
    {
      "inputs": [
        {
          "internalType": "address",
          "name": "operator",
          "type": "address"
        },
        {
          "internalType": "uint256",
          "name": "tokenId",
          "type": "uint256"
        }
      ],
      "name": "ERC721InsufficientApproval",
      "type": "error"
    },
    {
      "inputs": [
        {
          "internalType": "address",
          "name": "approver",
          "type": "address"
        }
      ],
      "name": "ERC721InvalidApprover",
      "type": "error"
    },
    {
      "inputs": [
        {
          "internalType": "address",
          "name": "operator",
          "type": "address"
        }
      ],
      "name": "ERC721InvalidOperator",
      "type": "error"
    },
    {
      "inputs": [
        {
          "internalType": "address",
          "name": "owner",
          "type": "address"
        }
      ],
      "name": "ERC721InvalidOwner",
      "type": "error"
    },
    {
      "inputs": [
        {
          "internalType": "address",
          "name": "receiver",
          "type": "address"
        }
      ],
      "name": "ERC721InvalidReceiver",
      "type": "error"
    },
    {
      "inputs": [
        {
          "internalType": "address",
          "name": "sender",
          "type": "address"
        }
      ],
      "name": "ERC721InvalidSender",
      "type": "error"
    },
    {
      "inputs": [
        {
          "internalType": "uint256",
          "name": "tokenId",
          "type": "uint256"
        }
      ],
      "name": "ERC721NonexistentToken",
      "type": "error"
    },
    {
      "inputs": [
        {
          "internalType": "address",
          "name": "owner",
          "type": "address"
        },
        {
          "internalType": "uint256",
          "name": "index",
          "type": "uint256"
        }
      ],
      "name": "ERC721OutOfBoundsIndex",
      "type": "error"
    },
    {
      "inputs": [],
      "name": "EnforcedPause",
      "type": "error"
    },
    {
      "inputs": [],
      "name": "ExpectedPause",
      "type": "error"
    },
    {
      "inputs": [
        {
          "internalType": "address",
          "name": "owner",
          "type": "address"
        }
      ],
      "name": "OwnableInvalidOwner",
      "type": "error"
    },
    {
      "inputs": [
        {
          "internalType": "address",
          "name": "account",
          "type": "address"
        }
      ],
      "name": "OwnableUnauthorizedAccount",
      "type": "error"
    },
    {
      "anonymous": false,
      "inputs": [
        {
          "indexed": true,
          "internalType": "address",
          "name": "owner",
          "type": "address"
        },
        {
          "indexed": true,
          "internalType": "address",
          "name": "approved",
          "type": "address"
        },
        {
          "indexed": true,
          "internalType": "uint256",
          "name": "tokenId",
          "type": "uint256"
        }
      ],
      "name": "Approval",
      "type": "event"
    },
    {
      "anonymous": false,
      "inputs": [
        {
          "indexed": true,
          "internalType": "address",
          "name": "owner",
          "type": "address"
        },
        {
          "indexed": true,
          "internalType": "address",
          "name": "operator",
          "type": "address"
        },
        {
          "indexed": false,
          "internalType": "bool",
          "name": "approved",
          "type": "bool"
        }
      ],
      "name": "ApprovalForAll",
      "type": "event"
    },
    {
      "anonymous": false,
      "inputs": [
        {
          "indexed": false,
          "internalType": "uint256",
          "name": "_fromTokenId",
          "type": "uint256"
        },
        {
          "indexed": false,
          "internalType": "uint256",
          "name": "_toTokenId",
          "type": "uint256"
        }
      ],
      "name": "BatchMetadataUpdate",
      "type": "event"
    },
    {
      "anonymous": false,
      "inputs": [
        {
          "indexed": false,
          "internalType": "uint256",
          "name": "_tokenId",
          "type": "uint256"
        }
      ],
      "name": "MetadataUpdate",
      "type": "event"
    },
    {
      "anonymous": false,
      "inputs": [
        {
          "indexed": true,
          "internalType": "uint256",
          "name": "tokenId",
          "type": "uint256"
        },
        {
          "indexed": true,
          "internalType": "address",
          "name": "recipient",
          "type": "address"
        },
        {
          "indexed": false,
          "internalType": "string",
          "name": "tokenURI",
          "type": "string"
        }
      ],
      "name": "NFTMinted",
      "type": "event"
    },
    {
      "anonymous": false,
      "inputs": [
        {
          "indexed": true,
          "internalType": "address",
          "name": "previousOwner",
          "type": "address"
        },
        {
          "indexed": true,
          "internalType": "address",
          "name": "newOwner",
          "type": "address"
        }
      ],
      "name": "OwnershipTransferred",
      "type": "event"
    },
    {
      "anonymous": false,
      "inputs": [
        {
          "indexed": false,
          "internalType": "address",
          "name": "account",
          "type": "address"
        }
      ],
      "name": "Paused",
      "type": "event"
    },
    {
      "anonymous": false,
      "inputs": [],
      "name": "Paused",
      "type": "event"
    },
    {
      "anonymous": false,
      "inputs": [
        {
          "indexed": true,
          "internalType": "address",
          "name": "from",
          "type": "address"
        },
        {
          "indexed": true,
          "internalType": "address",
          "name": "to",
          "type": "address"
        },
        {
          "indexed": true,
          "internalType": "uint256",
          "name": "tokenId",
          "type": "uint256"
        }
      ],
      "name": "Transfer",
      "type": "event"
    },
    {
      "anonymous": false,
      "inputs": [
        {
          "indexed": false,
          "internalType": "address",
          "name": "account",
          "type": "address"
        }
      ],
      "name": "Unpaused",
      "type": "event"
    },
    {
      "anonymous": false,
      "inputs": [],
      "name": "Unpaused",
      "type": "event"
    },
    {
      "inputs": [
        {
          "internalType": "address",
          "name": "to",
          "type": "address"
        },
        {
          "internalType": "uint256",
          "name": "tokenId",
          "type": "uint256"
        }
      ],
      "name": "approve",
      "outputs": [],
      "stateMutability": "nonpayable",
      "type": "function"
    },
    {
      "inputs": [
        {
          "internalType": "address",
          "name": "owner",
          "type": "address"
        }
      ],
      "name": "balanceOf",
      "outputs": [
        {
          "internalType": "uint256",
          "name": "",
          "type": "uint256"
        }
      ],
      "stateMutability": "view",
      "type": "function"
    },
    {
      "inputs": [
        {
          "internalType": "uint256",
          "name": "tokenId",
          "type": "uint256"
        }
      ],
      "name": "burn",
      "outputs": [],
      "stateMutability": "nonpayable",
      "type": "function"
    },
    {
      "inputs": [
        {
          "internalType": "uint256",
          "name": "tokenId",
          "type": "uint256"
        }
      ],
      "name": "getApproved",
      "outputs": [
        {
          "internalType": "address",
          "name": "",
          "type": "address"
        }
      ],
      "stateMutability": "view",
      "type": "function"
    },
    {
      "inputs": [
        {
          "internalType": "address",
          "name": "owner",
          "type": "address"
        },
        {
          "internalType": "address",
          "name": "operator",
          "type": "address"
        }
      ],
      "name": "isApprovedForAll",
      "outputs": [
        {
          "internalType": "bool",
          "name": "",
          "type": "bool"
        }
      ],
      "stateMutability": "view",
      "type": "function"
    },
    {
      "inputs": [],
      "name": "name",
      "outputs": [
        {
          "internalType": "string",
          "name": "",
          "type": "string"
        }
      ],
      "stateMutability": "view",
      "type": "function"
    },
    {
      "inputs": [],
      "name": "owner",
      "outputs": [
        {
          "internalType": "address",
          "name": "",
          "type": "address"
        }
      ],
      "stateMutability": "view",
      "type": "function"
    },
    {
      "inputs": [
        {
          "internalType": "uint256",
          "name": "tokenId",
          "type": "uint256"
        }
      ],
      "name": "ownerOf",
      "outputs": [
        {
          "internalType": "address",
          "name": "",
          "type": "address"
        }
      ],
      "stateMutability": "view",
      "type": "function"
    },
    {
      "inputs": [],
      "name": "pause",
      "outputs": [],
      "stateMutability": "nonpayable",
      "type": "function"
    },
    {
      "inputs": [],
      "name": "paused",
      "outputs": [
        {
          "internalType": "bool",
          "name": "",
          "type": "bool"
        }
      ],
      "stateMutability": "view",
      "type": "function"
    },
    {
      "inputs": [],
      "name": "renounceOwnership",
      "outputs": [],
      "stateMutability": "nonpayable",
      "type": "function"
    },
    {
      "inputs": [
        {
          "internalType": "address",
          "name": "to",
          "type": "address"
        },
        {
          "internalType": "string",
          "name": "uri",
          "type": "string"
        }
      ],
      "name": "safeMint",
      "outputs": [],
      "stateMutability": "nonpayable",
      "type": "function"
    },
    {
      "inputs": [
        {
          "internalType": "address",
          "name": "from",
          "type": "address"
        },
        {
          "internalType": "address",
          "name": "to",
          "type": "address"
        },
        {
          "internalType": "uint256",
          "name": "tokenId",
          "type": "uint256"
        }
      ],
      "name": "safeTransferFrom",
      "outputs": [],
      "stateMutability": "nonpayable",
      "type": "function"
    },
    {
      "inputs": [
        {
          "internalType": "address",
          "name": "from",
          "type": "address"
        },
        {
          "internalType": "address",
          "name": "to",
          "type": "address"
        },
        {
          "internalType": "uint256",
          "name": "tokenId",
          "type": "uint256"
        },
        {
          "internalType": "bytes",
          "name": "data",
          "type": "bytes"
        }
      ],
      "name": "safeTransferFrom",
      "outputs": [],
      "stateMutability": "nonpayable",
      "type": "function"
    },
    {
      "inputs": [
        {
          "internalType": "address",
          "name": "operator",
          "type": "address"
        },
        {
          "internalType": "bool",
          "name": "approved",
          "type": "bool"
        }
      ],
      "name": "setApprovalForAll",
      "outputs": [],
      "stateMutability": "nonpayable",
      "type": "function"
    },
    {
      "inputs": [
        {
          "internalType": "bytes4",
          "name": "interfaceId",
          "type": "bytes4"
        }
      ],
      "name": "supportsInterface",
      "outputs": [
        {
          "internalType": "bool",
          "name": "",
          "type": "bool"
        }
      ],
      "stateMutability": "view",
      "type": "function"
    },
    {
      "inputs": [],
      "name": "symbol",
      "outputs": [
        {
          "internalType": "string",
          "name": "",
          "type": "string"
        }
      ],
      "stateMutability": "view",
      "type": "function"
    },
    {
      "inputs": [
        {
          "internalType": "uint256",
          "name": "index",
          "type": "uint256"
        }
      ],
      "name": "tokenByIndex",
      "outputs": [
        {
          "internalType": "uint256",
          "name": "",
          "type": "uint256"
        }
      ],
      "stateMutability": "view",
      "type": "function"
    },
    {
      "inputs": [
        {
          "internalType": "address",
          "name": "owner",
          "type": "address"
        },
        {
          "internalType": "uint256",
          "name": "index",
          "type": "uint256"
        }
      ],
      "name": "tokenOfOwnerByIndex",
      "outputs": [
        {
          "internalType": "uint256",
          "name": "",
          "type": "uint256"
        }
      ],
      "stateMutability": "view",
      "type": "function"
    },
    {
      "inputs": [
        {
          "internalType": "uint256",
          "name": "tokenId",
          "type": "uint256"
        }
      ],
      "name": "tokenURI",
      "outputs": [
        {
          "internalType": "string",
          "name": "",
          "type": "string"
        }
      ],
      "stateMutability": "view",
      "type": "function"
    },
    {
      "inputs": [],
      "name": "totalSupply",
      "outputs": [
        {
          "internalType": "uint256",
          "name": "",
          "type": "uint256"
        }
      ],
      "stateMutability": "view",
      "type": "function"
    },
    {
      "inputs": [
        {
          "internalType": "address",
          "name": "from",
          "type": "address"
        },
        {
          "internalType": "address",
          "name": "to",
          "type": "address"
        },
        {
          "internalType": "uint256",
          "name": "tokenId",
          "type": "uint256"
        }
      ],
      "name": "transferFrom",
      "outputs": [],
      "stateMutability": "nonpayable",
      "type": "function"
    },
    {
      "inputs": [
        {
          "internalType": "address",
          "name": "newOwner",
          "type": "address"
        }
      ],
      "name": "transferOwnership",
      "outputs": [],
      "stateMutability": "nonpayable",
      "type": "function"
    },
    {
      "inputs": [],
      "name": "unpause",
      "outputs": [],
      "stateMutability": "nonpayable",
      "type": "function"
    }
  ],
  "bytecode": "0x60806040526001600c553480156200001657600080fd5b50336040518060400160405280600981526020017f4372656174654e667400000000000000000000000000000000000000000000008152506040518060400160405280600381526020017f4e46540000000000000000000000000000000000000000000000000000000000815250816000908162000095919062000492565b508060019081620000a7919062000492565b5050506000600b60006101000a81548160ff021916908315150217905550600073ffffffffffffffffffffffffffffffffffffffff168173ffffffffffffffffffffffffffffffffffffffff16036200013a5760006040517f1e4fbdf7000000000000000000000000000000000000000000000000000000008152600401620001319190620005be565b60405180910390fd5b6200014b816200015260201b60201c565b50620005db565b6000600b60019054906101000a900473ffffffffffffffffffffffffffffffffffffffff16905081600b60016101000a81548173ffffffffffffffffffffffffffffffffffffffff021916908373ffffffffffffffffffffffffffffffffffffffff1602179055508173ffffffffffffffffffffffffffffffffffffffff168173ffffffffffffffffffffffffffffffffffffffff167f8be0079c531659141344cd1fd0a4f28419497f9722a3daafe3b4186f6b6457e060405160405180910390a35050565b600081519050919050565b7f4e487b7100000000000000000000000000000000000000000000000000000000600052604160045260246000fd5b7f4e487b7100000000000000000000000000000000000000000000000000000000600052602260045260246000fd5b600060028204905060018216806200029a57607f821691505b602082108103620002b057620002af62000252565b5b50919050565b60008190508160005260206000209050919050565b60006020601f8301049050919050565b600082821b905092915050565b6000600883026200031a7fffffffffffffffffffffffffffffffffffffffffffffffffffffffffffffffff82620002db565b620003268683620002db565b95508019841693508086168417925050509392505050565b6000819050919050565b6000819050919050565b6000620003736200036d62000367846200033e565b62000348565b6200033e565b9050919050565b6000819050919050565b6200038f8362000352565b620003a76200039e826200037a565b848454620002e8565b825550505050565b600090565b620003be620003af565b620003cb81848462000384565b505050565b5b81811015620003f357620003e7600082620003b4565b600181019050620003d1565b5050565b601f82111562000442576200040c81620002b6565b6200041784620002cb565b8101602085101562000427578190505b6200043f6200043685620002cb565b830182620003d0565b50505b505050565b600082821c905092915050565b6000620004676000198460080262000447565b1980831691505092915050565b600062000482838362000454565b9150826002028217905092915050565b6200049d8262000218565b67ffffffffffffffff811115620004b957620004b862000223565b5b620004c5825462000281565b620004d2828285620003f7565b600060209050601f8311600181146200050a5760008415620004f5578287015190505b62000501858262000474565b86555062000571565b601f1984166200051a86620002b6565b60005b8281101562000544578489015182556001820191506020850194506020810190506200051d565b8683101562000564578489015162000560601f89168262000454565b8355505b6001600288020188555050505b505050505050565b600073ffffffffffffffffffffffffffffffffffffffff82169050919050565b6000620005a68262000579565b9050919050565b620005b88162000599565b82525050565b6000602082019050620005d56000830184620005ad565b92915050565b61306680620005eb6000396000f3fe608060405234801561001057600080fd5b50600436106101585760003560e01c80636352211e116100c3578063a22cb4651161007c578063a22cb465146103a1578063b88d4fde146103bd578063c87b56dd146103d9578063d204c45e14610409578063e985e9c514610425578063f2fde38b1461045557610158565b80636352211e146102f157806370a0823114610321578063715018a6146103515780638456cb591461035b5780638da5cb5b1461036557806395d89b411461038357610158565b80632f745c59116101155780632f745c59146102315780633f4ba83a1461026157806342842e0e1461026b57806342966c68146102875780634f6ccce7146102a35780635c975abb146102d357610158565b806301ffc9a71461015d57806306fdde031461018d578063081812fc146101ab578063095ea7b3146101db57806318160ddd146101f757806323b872dd14610215575b600080fd5b6101776004803603810190610172919061242c565b610471565b6040516101849190612474565b60405180910390f35b610195610483565b6040516101a2919061251f565b60405180910390f35b6101c560048036038101906101c09190612577565b610515565b6040516101d291906125e5565b60405180910390f35b6101f560048036038101906101f0919061262c565b610531565b005b6101ff610547565b60405161020c919061267b565b60405180910390f35b61022f600480360381019061022a9190612696565b610554565b005b61024b6004803603810190610246919061262c565b610656565b604051610258919061267b565b60405180910390f35b6102696106ff565b005b61028560048036038101906102809190612696565b61073d565b005b6102a1600480360381019061029c9190612577565b61075d565b005b6102bd60048036038101906102b89190612577565b610774565b6040516102ca919061267b565b60405180910390f35b6102db6107ea565b6040516102e89190612474565b60405180910390f35b61030b60048036038101906103069190612577565b610801565b60405161031891906125e5565b60405180910390f35b61033b600480360381019061033691906126e9565b610813565b604051610348919061267b565b60405180910390f35b6103596108cd565b005b6103636108e1565b005b61036d61091f565b60405161037a91906125e5565b60405180910390f35b61038b610949565b604051610398919061251f565b60405180910390f35b6103bb60048036038101906103b69190612742565b6109db565b005b6103d760048036038101906103d291906128b7565b6109f1565b005b6103f360048036038101906103ee9190612577565b610a0e565b604051610400919061251f565b60405180910390f35b610423600480360381019061041e91906129db565b610a20565b005b61043f600480360381019061043a9190612a37565b610aab565b60405161044c9190612474565b60405180910390f35b61046f600480360381019061046a91906126e9565b610b3f565b005b600061047c82610bc5565b9050919050565b60606000805461049290612aa6565b80601f01602080910402602001604051908101604052809291908181526020018280546104be90612aa6565b801561050b5780601f106104e05761010080835404028352916020019161050b565b820191906000526020600020905b8154815290600101906020018083116104ee57829003601f168201915b5050505050905090565b600061052082610c26565b5061052a82610cae565b9050919050565b610543828261053e610ceb565b610cf3565b5050565b6000600880549050905090565b600073ffffffffffffffffffffffffffffffffffffffff168273ffffffffffffffffffffffffffffffffffffffff16036105c65760006040517f64a0ae920000000000000000000000000000000000000000000000000000000081526004016105bd91906125e5565b60405180910390fd5b60006105da83836105d5610ceb565b610d05565b90508373ffffffffffffffffffffffffffffffffffffffff168173ffffffffffffffffffffffffffffffffffffffff1614610650578382826040517f64283d7b00000000000000000000000000000000000000000000000000000000815260040161064793929190612ad7565b60405180910390fd5b50505050565b600061066183610813565b82106106a65782826040517fa57d13dc00000000000000000000000000000000000000000000000000000000815260040161069d929190612b0e565b60405180910390fd5b600660008473ffffffffffffffffffffffffffffffffffffffff1673ffffffffffffffffffffffffffffffffffffffff168152602001908152602001600020600083815260200190815260200160002054905092915050565b610707610d1b565b61070f610da2565b7fa45f47fdea8a1efdd9029a5691c7f759c32b7c698632b563573e155625d1693360405160405180910390a1565b610758838383604051806020016040528060008152506109f1565b505050565b61077060008261076b610ceb565b610d05565b5050565b600061077e610547565b82106107c4576000826040517fa57d13dc0000000000000000000000000000000000000000000000000000000081526004016107bb929190612b0e565b60405180910390fd5b600882815481106107d8576107d7612b37565b5b90600052602060002001549050919050565b6000600b60009054906101000a900460ff16905090565b600061080c82610c26565b9050919050565b60008073ffffffffffffffffffffffffffffffffffffffff168273ffffffffffffffffffffffffffffffffffffffff16036108865760006040517f89c62b6400000000000000000000000000000000000000000000000000000000815260040161087d91906125e5565b60405180910390fd5b600360008373ffffffffffffffffffffffffffffffffffffffff1673ffffffffffffffffffffffffffffffffffffffff168152602001908152602001600020549050919050565b6108d5610d1b565b6108df6000610e05565b565b6108e9610d1b565b6108f1610ecb565b7f9e87fac88ff661f02d44f95383c817fece4bce600a3dab7a54406878b965e75260405160405180910390a1565b6000600b60019054906101000a900473ffffffffffffffffffffffffffffffffffffffff16905090565b60606001805461095890612aa6565b80601f016020809104026020016040519081016040528092919081815260200182805461098490612aa6565b80156109d15780601f106109a6576101008083540402835291602001916109d1565b820191906000526020600020905b8154815290600101906020018083116109b457829003601f168201915b5050505050905090565b6109ed6109e6610ceb565b8383610f2e565b5050565b6109fc848484610554565b610a088484848461109d565b50505050565b6060610a1982611254565b9050919050565b610a28610d1b565b6000600c6000815480929190610a3d90612b95565b919050559050610a4d8382611367565b610a578183611385565b8273ffffffffffffffffffffffffffffffffffffffff16817f06becd955c918828f6e985541acbf49cc842c9e9bd569fffc7698e721ef1357584604051610a9e919061251f565b60405180910390a3505050565b6000600560008473ffffffffffffffffffffffffffffffffffffffff1673ffffffffffffffffffffffffffffffffffffffff16815260200190815260200160002060008373ffffffffffffffffffffffffffffffffffffffff1673ffffffffffffffffffffffffffffffffffffffff16815260200190815260200160002060009054906101000a900460ff16905092915050565b610b47610d1b565b600073ffffffffffffffffffffffffffffffffffffffff168173ffffffffffffffffffffffffffffffffffffffff1603610bb95760006040517f1e4fbdf7000000000000000000000000000000000000000000000000000000008152600401610bb091906125e5565b60405180910390fd5b610bc281610e05565b50565b6000634906490660e01b7bffffffffffffffffffffffffffffffffffffffffffffffffffffffff1916827bffffffffffffffffffffffffffffffffffffffffffffffffffffffff19161480610c1f5750610c1e826113e1565b5b9050919050565b600080610c328361145b565b9050600073ffffffffffffffffffffffffffffffffffffffff168173ffffffffffffffffffffffffffffffffffffffff1603610ca557826040517f7e273289000000000000000000000000000000000000000000000000000000008152600401610c9c919061267b565b60405180910390fd5b80915050919050565b60006004600083815260200190815260200160002060009054906101000a900473ffffffffffffffffffffffffffffffffffffffff169050919050565b600033905090565b610d008383836001611498565b505050565b6000610d1284848461165d565b90509392505050565b610d23610ceb565b73ffffffffffffffffffffffffffffffffffffffff16610d4161091f565b73ffffffffffffffffffffffffffffffffffffffff1614610da057610d64610ceb565b6040517f118cdaa7000000000000000000000000000000000000000000000000000000008152600401610d9791906125e5565b60405180910390fd5b565b610daa61167b565b6000600b60006101000a81548160ff0219169083151502179055507f5db9ee0a495bf2e6ff9c91a7834c1ba4fdd244a5e8aa4e537bd38aeae4b073aa610dee610ceb565b604051610dfb91906125e5565b60405180910390a1565b6000600b60019054906101000a900473ffffffffffffffffffffffffffffffffffffffff16905081600b60016101000a81548173ffffffffffffffffffffffffffffffffffffffff021916908373ffffffffffffffffffffffffffffffffffffffff1602179055508173ffffffffffffffffffffffffffffffffffffffff168173ffffffffffffffffffffffffffffffffffffffff167f8be0079c531659141344cd1fd0a4f28419497f9722a3daafe3b4186f6b6457e060405160405180910390a35050565b610ed36116bb565b6001600b60006101000a81548160ff0219169083151502179055507f62e78cea01bee320cd4e420270b5ea74000d11b0c9f74754ebdbfc544b05a258610f17610ceb565b604051610f2491906125e5565b60405180910390a1565b600073ffffffffffffffffffffffffffffffffffffffff168273ffffffffffffffffffffffffffffffffffffffff1603610f9f57816040517f5b08ba18000000000000000000000000000000000000000000000000000000008152600401610f9691906125e5565b60405180910390fd5b80600560008573ffffffffffffffffffffffffffffffffffffffff1673ffffffffffffffffffffffffffffffffffffffff16815260200190815260200160002060008473ffffffffffffffffffffffffffffffffffffffff1673ffffffffffffffffffffffffffffffffffffffff16815260200190815260200160002060006101000a81548160ff0219169083151502179055508173ffffffffffffffffffffffffffffffffffffffff168373ffffffffffffffffffffffffffffffffffffffff167f17307eab39ab6107e8899845ad3d59bd9653f200f220920489ca2b5937696c31836040516110909190612474565b60405180910390a3505050565b60008373ffffffffffffffffffffffffffffffffffffffff163b111561124e578273ffffffffffffffffffffffffffffffffffffffff1663150b7a026110e1610ceb565b8685856040518563ffffffff1660e01b81526004016111039493929190612c32565b6020604051808303816000875af192505050801561113f57506040513d601f19601f8201168201806040525081019061113c9190612c93565b60015b6111c3573d806000811461116f576040519150601f19603f3d011682016040523d82523d6000602084013e611174565b606091505b5060008151036111bb57836040517f64a0ae920000000000000000000000000000000000000000000000000000000081526004016111b291906125e5565b60405180910390fd5b805181602001fd5b63150b7a0260e01b7bffffffffffffffffffffffffffffffffffffffffffffffffffffffff1916817bffffffffffffffffffffffffffffffffffffffffffffffffffffffff19161461124c57836040517f64a0ae9200000000000000000000000000000000000000000000000000000000815260040161124391906125e5565b60405180910390fd5b505b50505050565b606061125f82610c26565b506000600a6000848152602001908152602001600020805461128090612aa6565b80601f01602080910402602001604051908101604052809291908181526020018280546112ac90612aa6565b80156112f95780601f106112ce576101008083540402835291602001916112f9565b820191906000526020600020905b8154815290600101906020018083116112dc57829003601f168201915b50505050509050600061130a6116fc565b9050600081510361131f578192505050611362565b60008251111561135457808260405160200161133c929190612cfc565b60405160208183030381529060405292505050611362565b61135d84611713565b925050505b919050565b61138182826040518060200160405280600081525061177c565b5050565b80600a600084815260200190815260200160002090816113a59190612ecc565b507ff8e1a15aba9398e019f0b49df1a4fde98ee17ae345cb5f6b5e2c27f5033e8ce7826040516113d5919061267b565b60405180910390a15050565b60007f780e9d63000000000000000000000000000000000000000000000000000000007bffffffffffffffffffffffffffffffffffffffffffffffffffffffff1916827bffffffffffffffffffffffffffffffffffffffffffffffffffffffff19161480611454575061145382611798565b5b9050919050565b60006002600083815260200190815260200160002060009054906101000a900473ffffffffffffffffffffffffffffffffffffffff169050919050565b80806114d15750600073ffffffffffffffffffffffffffffffffffffffff168273ffffffffffffffffffffffffffffffffffffffff1614155b156116055760006114e184610c26565b9050600073ffffffffffffffffffffffffffffffffffffffff168373ffffffffffffffffffffffffffffffffffffffff161415801561154c57508273ffffffffffffffffffffffffffffffffffffffff168173ffffffffffffffffffffffffffffffffffffffff1614155b801561155f575061155d8184610aab565b155b156115a157826040517fa9fbf51f00000000000000000000000000000000000000000000000000000000815260040161159891906125e5565b60405180910390fd5b811561160357838573ffffffffffffffffffffffffffffffffffffffff168273ffffffffffffffffffffffffffffffffffffffff167f8c5be1e5ebec7d5bd14f71427d1e84f3dd0314c0f7b2291e5b200ac8c7c3b92560405160405180910390a45b505b836004600085815260200190815260200160002060006101000a81548173ffffffffffffffffffffffffffffffffffffffff021916908373ffffffffffffffffffffffffffffffffffffffff16021790555050505050565b60006116676116bb565b61167284848461187a565b90509392505050565b6116836107ea565b6116b9576040517f8dfc202b00000000000000000000000000000000000000000000000000000000815260040160405180910390fd5b565b6116c36107ea565b156116fa576040517fd93c066500000000000000000000000000000000000000000000000000000000815260040160405180910390fd5b565b606060405180602001604052806000815250905090565b606061171e82610c26565b5060006117296116fc565b905060008151116117495760405180602001604052806000815250611774565b8061175384611997565b604051602001611764929190612cfc565b6040516020818303038152906040525b915050919050565b6117868383611a65565b611793600084848461109d565b505050565b60007f80ac58cd000000000000000000000000000000000000000000000000000000007bffffffffffffffffffffffffffffffffffffffffffffffffffffffff1916827bffffffffffffffffffffffffffffffffffffffffffffffffffffffff1916148061186357507f5b5e139f000000000000000000000000000000000000000000000000000000007bffffffffffffffffffffffffffffffffffffffffffffffffffffffff1916827bffffffffffffffffffffffffffffffffffffffffffffffffffffffff1916145b80611873575061187282611b5e565b5b9050919050565b600080611888858585611bc8565b9050600073ffffffffffffffffffffffffffffffffffffffff168173ffffffffffffffffffffffffffffffffffffffff16036118cc576118c784611de2565b61190b565b8473ffffffffffffffffffffffffffffffffffffffff168173ffffffffffffffffffffffffffffffffffffffff161461190a576119098185611e2b565b5b5b600073ffffffffffffffffffffffffffffffffffffffff168573ffffffffffffffffffffffffffffffffffffffff160361194d5761194884611f8c565b61198c565b8473ffffffffffffffffffffffffffffffffffffffff168173ffffffffffffffffffffffffffffffffffffffff161461198b5761198a858561205d565b5b5b809150509392505050565b6060600060016119a6846120e8565b01905060008167ffffffffffffffff8111156119c5576119c461278c565b5b6040519080825280601f01601f1916602001820160405280156119f75781602001600182028036833780820191505090505b509050600082602001820190505b600115611a5a578080600190039150507f3031323334353637383961626364656600000000000000000000000000000000600a86061a8153600a8581611a4e57611a4d612f9e565b5b04945060008503611a05575b819350505050919050565b600073ffffffffffffffffffffffffffffffffffffffff168273ffffffffffffffffffffffffffffffffffffffff1603611ad75760006040517f64a0ae92000000000000000000000000000000000000000000000000000000008152600401611ace91906125e5565b60405180910390fd5b6000611ae583836000610d05565b9050600073ffffffffffffffffffffffffffffffffffffffff168173ffffffffffffffffffffffffffffffffffffffff1614611b595760006040517f73c6ac6e000000000000000000000000000000000000000000000000000000008152600401611b5091906125e5565b60405180910390fd5b505050565b60007f01ffc9a7000000000000000000000000000000000000000000000000000000007bffffffffffffffffffffffffffffffffffffffffffffffffffffffff1916827bffffffffffffffffffffffffffffffffffffffffffffffffffffffff1916149050919050565b600080611bd48461145b565b9050600073ffffffffffffffffffffffffffffffffffffffff168373ffffffffffffffffffffffffffffffffffffffff1614611c1657611c1581848661223b565b5b600073ffffffffffffffffffffffffffffffffffffffff168173ffffffffffffffffffffffffffffffffffffffff1614611ca757611c58600085600080611498565b6001600360008373ffffffffffffffffffffffffffffffffffffffff1673ffffffffffffffffffffffffffffffffffffffff168152602001908152602001600020600082825403925050819055505b600073ffffffffffffffffffffffffffffffffffffffff168573ffffffffffffffffffffffffffffffffffffffff1614611d2a576001600360008773ffffffffffffffffffffffffffffffffffffffff1673ffffffffffffffffffffffffffffffffffffffff168152602001908152602001600020600082825401925050819055505b846002600086815260200190815260200160002060006101000a81548173ffffffffffffffffffffffffffffffffffffffff021916908373ffffffffffffffffffffffffffffffffffffffff160217905550838573ffffffffffffffffffffffffffffffffffffffff168273ffffffffffffffffffffffffffffffffffffffff167fddf252ad1be2c89b69c2b068fc378daa952ba7f163c4a11628f55a4df523b3ef60405160405180910390a4809150509392505050565b6008805490506009600083815260200190815260200160002081905550600881908060018154018082558091505060019003906000526020600020016000909190919091505550565b6000611e3683610813565b9050600060076000848152602001908152602001600020549050818114611f1b576000600660008673ffffffffffffffffffffffffffffffffffffffff1673ffffffffffffffffffffffffffffffffffffffff168152602001908152602001600020600084815260200190815260200160002054905080600660008773ffffffffffffffffffffffffffffffffffffffff1673ffffffffffffffffffffffffffffffffffffffff168152602001908152602001600020600084815260200190815260200160002081905550816007600083815260200190815260200160002081905550505b6007600084815260200190815260200160002060009055600660008573ffffffffffffffffffffffffffffffffffffffff1673ffffffffffffffffffffffffffffffffffffffff16815260200190815260200160002060008381526020019081526020016000206000905550505050565b60006001600880549050611fa09190612fcd565b9050600060096000848152602001908152602001600020549050600060088381548110611fd057611fcf612b37565b5b906000526020600020015490508060088381548110611ff257611ff1612b37565b5b90600052602060002001819055508160096000838152602001908152602001600020819055506009600085815260200190815260200160002060009055600880548061204157612040613001565b5b6001900381819060005260206000200160009055905550505050565b6000600161206a84610813565b6120749190612fcd565b905081600660008573ffffffffffffffffffffffffffffffffffffffff1673ffffffffffffffffffffffffffffffffffffffff168152602001908152602001600020600083815260200190815260200160002081905550806007600084815260200190815260200160002081905550505050565b600080600090507a184f03e93ff9f4daa797ed6e38ed64bf6a1f0100000000000000008310612146577a184f03e93ff9f4daa797ed6e38ed64bf6a1f010000000000000000838161213c5761213b612f9e565b5b0492506040810190505b6d04ee2d6d415b85acef81000000008310612183576d04ee2d6d415b85acef8100000000838161217957612178612f9e565b5b0492506020810190505b662386f26fc1000083106121b257662386f26fc1000083816121a8576121a7612f9e565b5b0492506010810190505b6305f5e10083106121db576305f5e10083816121d1576121d0612f9e565b5b0492506008810190505b61271083106122005761271083816121f6576121f5612f9e565b5b0492506004810190505b60648310612223576064838161221957612218612f9e565b5b0492506002810190505b600a8310612232576001810190505b80915050919050565b6122468383836122ff565b6122fa57600073ffffffffffffffffffffffffffffffffffffffff168373ffffffffffffffffffffffffffffffffffffffff16036122bb57806040517f7e2732890000000000000000000000000000000000000000000000000000000081526004016122b2919061267b565b60405180910390fd5b81816040517f177e802f0000000000000000000000000000000000000000000000000000000081526004016122f1929190612b0e565b60405180910390fd5b505050565b60008073ffffffffffffffffffffffffffffffffffffffff168373ffffffffffffffffffffffffffffffffffffffff16141580156123b757508273ffffffffffffffffffffffffffffffffffffffff168473ffffffffffffffffffffffffffffffffffffffff16148061237857506123778484610aab565b5b806123b657508273ffffffffffffffffffffffffffffffffffffffff1661239e83610cae565b73ffffffffffffffffffffffffffffffffffffffff16145b5b90509392505050565b6000604051905090565b600080fd5b600080fd5b60007fffffffff0000000000000000000000000000000000000000000000000000000082169050919050565b612409816123d4565b811461241457600080fd5b50565b60008135905061242681612400565b92915050565b600060208284031215612442576124416123ca565b5b600061245084828501612417565b91505092915050565b60008115159050919050565b61246e81612459565b82525050565b60006020820190506124896000830184612465565b92915050565b600081519050919050565b600082825260208201905092915050565b60005b838110156124c95780820151818401526020810190506124ae565b60008484015250505050565b6000601f19601f8301169050919050565b60006124f18261248f565b6124fb818561249a565b935061250b8185602086016124ab565b612514816124d5565b840191505092915050565b6000602082019050818103600083015261253981846124e6565b905092915050565b6000819050919050565b61255481612541565b811461255f57600080fd5b50565b6000813590506125718161254b565b92915050565b60006020828403121561258d5761258c6123ca565b5b600061259b84828501612562565b91505092915050565b600073ffffffffffffffffffffffffffffffffffffffff82169050919050565b60006125cf826125a4565b9050919050565b6125df816125c4565b82525050565b60006020820190506125fa60008301846125d6565b92915050565b612609816125c4565b811461261457600080fd5b50565b60008135905061262681612600565b92915050565b60008060408385031215612643576126426123ca565b5b600061265185828601612617565b925050602061266285828601612562565b9150509250929050565b61267581612541565b82525050565b6000602082019050612690600083018461266c565b92915050565b6000806000606084860312156126af576126ae6123ca565b5b60006126bd86828701612617565b93505060206126ce86828701612617565b92505060406126df86828701612562565b9150509250925092565b6000602082840312156126ff576126fe6123ca565b5b600061270d84828501612617565b91505092915050565b61271f81612459565b811461272a57600080fd5b50565b60008135905061273c81612716565b92915050565b60008060408385031215612759576127586123ca565b5b600061276785828601612617565b92505060206127788582860161272d565b9150509250929050565b600080fd5b600080fd5b7f4e487b7100000000000000000000000000000000000000000000000000000000600052604160045260246000fd5b6127c4826124d5565b810181811067ffffffffffffffff821117156127e3576127e261278c565b5b80604052505050565b60006127f66123c0565b905061280282826127bb565b919050565b600067ffffffffffffffff8211156128225761282161278c565b5b61282b826124d5565b9050602081019050919050565b82818337600083830152505050565b600061285a61285584612807565b6127ec565b90508281526020810184848401111561287657612875612787565b5b612881848285612838565b509392505050565b600082601f83011261289e5761289d612782565b5b81356128ae848260208601612847565b91505092915050565b600080600080608085870312156128d1576128d06123ca565b5b60006128df87828801612617565b94505060206128f087828801612617565b935050604061290187828801612562565b925050606085013567ffffffffffffffff811115612922576129216123cf565b5b61292e87828801612889565b91505092959194509250565b600067ffffffffffffffff8211156129555761295461278c565b5b61295e826124d5565b9050602081019050919050565b600061297e6129798461293a565b6127ec565b90508281526020810184848401111561299a57612999612787565b5b6129a5848285612838565b509392505050565b600082601f8301126129c2576129c1612782565b5b81356129d284826020860161296b565b91505092915050565b600080604083850312156129f2576129f16123ca565b5b6000612a0085828601612617565b925050602083013567ffffffffffffffff811115612a2157612a206123cf565b5b612a2d858286016129ad565b9150509250929050565b60008060408385031215612a4e57612a4d6123ca565b5b6000612a5c85828601612617565b9250506020612a6d85828601612617565b9150509250929050565b7f4e487b7100000000000000000000000000000000000000000000000000000000600052602260045260246000fd5b60006002820490506001821680612abe57607f821691505b602082108103612ad157612ad0612a77565b5b50919050565b6000606082019050612aec60008301866125d6565b612af9602083018561266c565b612b0660408301846125d6565b949350505050565b6000604082019050612b2360008301856125d6565b612b30602083018461266c565b9392505050565b7f4e487b7100000000000000000000000000000000000000000000000000000000600052603260045260246000fd5b7f4e487b7100000000000000000000000000000000000000000000000000000000600052601160045260246000fd5b6000612ba082612541565b91507fffffffffffffffffffffffffffffffffffffffffffffffffffffffffffffffff8203612bd257612bd1612b66565b5b600182019050919050565b600081519050919050565b600082825260208201905092915050565b6000612c0482612bdd565b612c0e8185612be8565b9350612c1e8185602086016124ab565b612c27816124d5565b840191505092915050565b6000608082019050612c4760008301876125d6565b612c5460208301866125d6565b612c61604083018561266c565b8181036060830152612c738184612bf9565b905095945050505050565b600081519050612c8d81612400565b92915050565b600060208284031215612ca957612ca86123ca565b5b6000612cb784828501612c7e565b91505092915050565b600081905092915050565b6000612cd68261248f565b612ce08185612cc0565b9350612cf08185602086016124ab565b80840191505092915050565b6000612d088285612ccb565b9150612d148284612ccb565b91508190509392505050565b60008190508160005260206000209050919050565b60006020601f8301049050919050565b600082821b905092915050565b600060088302612d827fffffffffffffffffffffffffffffffffffffffffffffffffffffffffffffffff82612d45565b612d8c8683612d45565b95508019841693508086168417925050509392505050565b6000819050919050565b6000612dc9612dc4612dbf84612541565b612da4565b612541565b9050919050565b6000819050919050565b612de383612dae565b612df7612def82612dd0565b848454612d52565b825550505050565b600090565b612e0c612dff565b612e17818484612dda565b505050565b5b81811015612e3b57612e30600082612e04565b600181019050612e1d565b5050565b601f821115612e8057612e5181612d20565b612e5a84612d35565b81016020851015612e69578190505b612e7d612e7585612d35565b830182612e1c565b50505b505050565b600082821c905092915050565b6000612ea360001984600802612e85565b1980831691505092915050565b6000612ebc8383612e92565b9150826002028217905092915050565b612ed58261248f565b67ffffffffffffffff811115612eee57612eed61278c565b5b612ef88254612aa6565b612f03828285612e3f565b600060209050601f831160018114612f365760008415612f24578287015190505b612f2e8582612eb0565b865550612f96565b601f198416612f4486612d20565b60005b82811015612f6c57848901518255600182019150602085019450602081019050612f47565b86831015612f895784890151612f85601f891682612e92565b8355505b6001600288020188555050505b505050505050565b7f4e487b7100000000000000000000000000000000000000000000000000000000600052601260045260246000fd5b6000612fd882612541565b9150612fe383612541565b9250828203905081811115612ffb57612ffa612b66565b5b92915050565b7f4e487b7100000000000000000000000000000000000000000000000000000000600052603160045260246000fdfea2646970667358221220efd0748882a47694593dd1037bb17ff5a00ecee7c2108a1a3cf524b488d07a6e64736f6c63430008180033",
  "linkReferences": {},
  "deployedLinkReferences": {}
}