{
  "_format": "hh-sol-artifact-1",
  "contractName": "EventManager",
  "sourceName": "contracts/EventManager.sol",
  "abi": [
    {
      "inputs": [
        {
          "internalType": "string",
          "name": "name",
          "type": "string"
        },
        {
          "internalType": "string",
          "name": "description",
          "type": "string"
        },
        {
          "internalType": "uint256",
          "name": "date",
          "type": "uint256"
        }
      ],
      "name": "createEvent",
      "outputs": [],
      "stateMutability": "nonpayable",
      "type": "function"
    },
    {
      "inputs": [
        {
          "internalType": "uint256",
          "name": "",
          "type": "uint256"
        }
      ],
      "name": "events",
      "outputs": [
        {
          "internalType": "uint256",
          "name": "id",
          "type": "uint256"
        },
        {
          "internalType": "string",
          "name": "name",
          "type": "string"
        },
        {
          "internalType": "string",
          "name": "description",
          "type": "string"
        },
        {
          "internalType": "uint256",
          "name": "date",
          "type": "uint256"
        }
      ],
      "stateMutability": "view",
      "type": "function"
    },
    {
      "inputs": [],
      "name": "nextEventId",
      "outputs": [
        {
          "internalType": "uint256",
          "name": "",
          "type": "uint256"
        }
      ],
      "stateMutability": "view",
      "type": "function"
    }
  ],
  "bytecode": "0x608060405234801561001057600080fd5b50610947806100206000396000f3fe608060405234801561001057600080fd5b50600436106100415760003560e01c80630b791430146100465780635555fe17146100795780639f9d903a14610095575b600080fd5b610060600480360381019061005b9190610359565b6100b3565b6040516100709493929190610425565b60405180910390f35b610093600480360381019061008e91906104dd565b6101f3565b005b61009d610313565b6040516100aa9190610572565b60405180910390f35b60016020528060005260406000206000915090508060000154908060010180546100dc906105bc565b80601f0160208091040260200160405190810160405280929190818152602001828054610108906105bc565b80156101555780601f1061012a57610100808354040283529160200191610155565b820191906000526020600020905b81548152906001019060200180831161013857829003601f168201915b50505050509080600201805461016a906105bc565b80601f0160208091040260200160405190810160405280929190818152602001828054610196906105bc565b80156101e35780601f106101b8576101008083540402835291602001916101e3565b820191906000526020600020905b8154815290600101906020018083116101c657829003601f168201915b5050505050908060030154905084565b6040518060800160405280600054815260200186868080601f016020809104026020016040519081016040528093929190818152602001838380828437600081840152601f19601f82011690508083019250505050505050815260200184848080601f016020809104026020016040519081016040528093929190818152602001838380828437600081840152601f19601f8201169050808301925050505050505081526020018281525060016000805481526020019081526020016000206000820151816000015560208201518160010190816102d191906107c8565b5060408201518160020190816102e791906107c8565b5060608201518160030155905050600080815480929190610307906108c9565b91905055505050505050565b60005481565b600080fd5b600080fd5b6000819050919050565b61033681610323565b811461034157600080fd5b50565b6000813590506103538161032d565b92915050565b60006020828403121561036f5761036e610319565b5b600061037d84828501610344565b91505092915050565b61038f81610323565b82525050565b600081519050919050565b600082825260208201905092915050565b60005b838110156103cf5780820151818401526020810190506103b4565b60008484015250505050565b6000601f19601f8301169050919050565b60006103f782610395565b61040181856103a0565b93506104118185602086016103b1565b61041a816103db565b840191505092915050565b600060808201905061043a6000830187610386565b818103602083015261044c81866103ec565b9050818103604083015261046081856103ec565b905061046f6060830184610386565b95945050505050565b600080fd5b600080fd5b600080fd5b60008083601f84011261049d5761049c610478565b5b8235905067ffffffffffffffff8111156104ba576104b961047d565b5b6020830191508360018202830111156104d6576104d5610482565b5b9250929050565b6000806000806000606086880312156104f9576104f8610319565b5b600086013567ffffffffffffffff8111156105175761051661031e565b5b61052388828901610487565b9550955050602086013567ffffffffffffffff8111156105465761054561031e565b5b61055288828901610487565b9350935050604061056588828901610344565b9150509295509295909350565b60006020820190506105876000830184610386565b92915050565b7f4e487b7100000000000000000000000000000000000000000000000000000000600052602260045260246000fd5b600060028204905060018216806105d457607f821691505b6020821081036105e7576105e661058d565b5b50919050565b7f4e487b7100000000000000000000000000000000000000000000000000000000600052604160045260246000fd5b60008190508160005260206000209050919050565b60006020601f8301049050919050565b600082821b905092915050565b60006008830261067e7fffffffffffffffffffffffffffffffffffffffffffffffffffffffffffffffff82610641565b6106888683610641565b95508019841693508086168417925050509392505050565b6000819050919050565b60006106c56106c06106bb84610323565b6106a0565b610323565b9050919050565b6000819050919050565b6106df836106aa565b6106f36106eb826106cc565b84845461064e565b825550505050565b600090565b6107086106fb565b6107138184846106d6565b505050565b5b818110156107375761072c600082610700565b600181019050610719565b5050565b601f82111561077c5761074d8161061c565b61075684610631565b81016020851015610765578190505b61077961077185610631565b830182610718565b50505b505050565b600082821c905092915050565b600061079f60001984600802610781565b1980831691505092915050565b60006107b8838361078e565b9150826002028217905092915050565b6107d182610395565b67ffffffffffffffff8111156107ea576107e96105ed565b5b6107f482546105bc565b6107ff82828561073b565b600060209050601f8311600181146108325760008415610820578287015190505b61082a85826107ac565b865550610892565b601f1984166108408661061c565b60005b8281101561086857848901518255600182019150602085019450602081019050610843565b868310156108855784890151610881601f89168261078e565b8355505b6001600288020188555050505b505050505050565b7f4e487b7100000000000000000000000000000000000000000000000000000000600052601160045260246000fd5b60006108d482610323565b91507fffffffffffffffffffffffffffffffffffffffffffffffffffffffffffffffff82036109065761090561089a565b5b60018201905091905056fea264697066735822122009f0ed32f12ed86c3c07945937ef06ee19189dd01419d6180285282c26c5d21964736f6c63430008180033",
  "linkReferences": {},
  "deployedLinkReferences": {}
}