{
  "_format": "hh-sol-artifact-1",
  "contractName": "NFTBids",
  "sourceName": "contracts/NFTBids.sol",
  "abi": [
    {
      "anonymous": false,
      "inputs": [
        {
          "indexed": true,
          "internalType": "uint256",
          "name": "tokenId",
          "type": "uint256"
        },
        {
          "indexed": true,
          "internalType": "address",
          "name": "bidder",
          "type": "address"
        },
        {
          "indexed": false,
          "internalType": "uint256",
          "name": "bidAmount",
          "type": "uint256"
        }
      ],
      "name": "BidAccepted",
      "type": "event"
    },
    {
      "anonymous": false,
      "inputs": [
        {
          "indexed": true,
          "internalType": "uint256",
          "name": "tokenId",
          "type": "uint256"
        },
        {
          "indexed": true,
          "internalType": "address",
          "name": "bidder",
          "type": "address"
        },
        {
          "indexed": false,
          "internalType": "uint256",
          "name": "bidAmount",
          "type": "uint256"
        }
      ],
      "name": "BidPlaced",
      "type": "event"
    },
    {
      "anonymous": false,
      "inputs": [
        {
          "indexed": false,
          "internalType": "string",
          "name": "reason",
          "type": "string"
        }
      ],
      "name": "BidReverted",
      "type": "event"
    },
    {
      "inputs": [
        {
          "internalType": "uint256",
          "name": "tokenId",
          "type": "uint256"
        },
        {
          "internalType": "address",
          "name": "nftContract",
          "type": "address"
        }
      ],
      "name": "acceptBid",
      "outputs": [],
      "stateMutability": "nonpayable",
      "type": "function"
    },
    {
      "inputs": [
        {
          "internalType": "uint256",
          "name": "",
          "type": "uint256"
        }
      ],
      "name": "bids",
      "outputs": [
        {
          "internalType": "uint256",
          "name": "tokenId",
          "type": "uint256"
        },
        {
          "internalType": "address",
          "name": "bidder",
          "type": "address"
        },
        {
          "internalType": "uint256",
          "name": "bidAmount",
          "type": "uint256"
        }
      ],
      "stateMutability": "view",
      "type": "function"
    },
    {
      "inputs": [
        {
          "internalType": "uint256",
          "name": "tokenId",
          "type": "uint256"
        }
      ],
      "name": "placeBid",
      "outputs": [],
      "stateMutability": "payable",
      "type": "function"
    }
  ],
  "bytecode": "0x608060405234801561001057600080fd5b50610a98806100206000396000f3fe6080604052600436106100345760003560e01c806302068664146100395780634423c5f1146100625780639979ef45146100a1575b600080fd5b34801561004557600080fd5b50610060600480360381019061005b91906106fb565b6100bd565b005b34801561006e57600080fd5b506100896004803603810190610084919061073b565b61035b565b60405161009893929190610786565b60405180910390f35b6100bb60048036038101906100b6919061073b565b6103a5565b005b6000806000848152602001908152602001600020604051806060016040529081600082015481526020016001820160009054906101000a900473ffffffffffffffffffffffffffffffffffffffff1673ffffffffffffffffffffffffffffffffffffffff1673ffffffffffffffffffffffffffffffffffffffff1681526020016002820154815250509050600081604001511161018f576040517f08c379a00000000000000000000000000000000000000000000000000000000081526004016101869061081a565b60405180910390fd5b8173ffffffffffffffffffffffffffffffffffffffff166323b872dd338360200151866040518463ffffffff1660e01b81526004016101d09392919061083a565b600060405180830381600087803b1580156101ea57600080fd5b505af11580156101fe573d6000803e3d6000fd5b5050505060003373ffffffffffffffffffffffffffffffffffffffff16826040015160405161022c906108a2565b60006040518083038185875af1925050503d8060008114610269576040519150601f19603f3d011682016040523d82523d6000602084013e61026e565b606091505b50509050806102b2576040517f08c379a00000000000000000000000000000000000000000000000000000000081526004016102a990610929565b60405180910390fd5b6000808581526020019081526020016000206000808201600090556001820160006101000a81549073ffffffffffffffffffffffffffffffffffffffff021916905560028201600090555050816020015173ffffffffffffffffffffffffffffffffffffffff16847f91a721693afff25f233ac308edbd2fa15ad7d4dfacdd164dd4e8c57ab72f4ae9846040015160405161034d9190610949565b60405180910390a350505050565b60006020528060005260406000206000915090508060000154908060010160009054906101000a900473ffffffffffffffffffffffffffffffffffffffff16908060020154905083565b6000806000838152602001908152602001600020604051806060016040529081600082015481526020016001820160009054906101000a900473ffffffffffffffffffffffffffffffffffffffff1673ffffffffffffffffffffffffffffffffffffffff1673ffffffffffffffffffffffffffffffffffffffff1681526020016002820154815250509050806040015134116104ab577ff88abbee96b472c0212d2febbd558de88a3b6c89462d9fdb31c0886aeef9ad84604051610468906109d6565b60405180910390a16040517f08c379a00000000000000000000000000000000000000000000000000000000081526004016104a2906109d6565b60405180910390fd5b60008160400151111561056e576000816020015173ffffffffffffffffffffffffffffffffffffffff1682604001516040516104e6906108a2565b60006040518083038185875af1925050503d8060008114610523576040519150601f19603f3d011682016040523d82523d6000602084013e610528565b606091505b505090508061056c576040517f08c379a000000000000000000000000000000000000000000000000000000000815260040161056390610a42565b60405180910390fd5b505b60405180606001604052808381526020013373ffffffffffffffffffffffffffffffffffffffff168152602001348152506000808481526020019081526020016000206000820151816000015560208201518160010160006101000a81548173ffffffffffffffffffffffffffffffffffffffff021916908373ffffffffffffffffffffffffffffffffffffffff160217905550604082015181600201559050503373ffffffffffffffffffffffffffffffffffffffff16827f0e54eff26401bf69b81b26f60bd85ef47f5d85275c1d268d84f68d6897431c47346040516106569190610949565b60405180910390a35050565b600080fd5b6000819050919050565b61067a81610667565b811461068557600080fd5b50565b60008135905061069781610671565b92915050565b600073ffffffffffffffffffffffffffffffffffffffff82169050919050565b60006106c88261069d565b9050919050565b6106d8816106bd565b81146106e357600080fd5b50565b6000813590506106f5816106cf565b92915050565b6000806040838503121561071257610711610662565b5b600061072085828601610688565b9250506020610731858286016106e6565b9150509250929050565b60006020828403121561075157610750610662565b5b600061075f84828501610688565b91505092915050565b61077181610667565b82525050565b610780816106bd565b82525050565b600060608201905061079b6000830186610768565b6107a86020830185610777565b6107b56040830184610768565b949350505050565b600082825260208201905092915050565b7f4e6f2076616c69642062696420666f756e642e00000000000000000000000000600082015250565b60006108046013836107bd565b915061080f826107ce565b602082019050919050565b60006020820190508181036000830152610833816107f7565b9050919050565b600060608201905061084f6000830186610777565b61085c6020830185610777565b6108696040830184610768565b949350505050565b600081905092915050565b50565b600061088c600083610871565b91506108978261087c565b600082019050919050565b60006108ad8261087f565b9150819050919050565b7f4661696c656420746f207472616e736665722062696420616d6f756e7420746f60008201527f207468652073656c6c65722e0000000000000000000000000000000000000000602082015250565b6000610913602c836107bd565b915061091e826108b7565b604082019050919050565b6000602082019050818103600083015261094281610906565b9050919050565b600060208201905061095e6000830184610768565b92915050565b7f4e657720626964206d75737420626520686967686572207468616e207468652060008201527f6578697374696e67206269642e00000000000000000000000000000000000000602082015250565b60006109c0602d836107bd565b91506109cb82610964565b604082019050919050565b600060208201905081810360008301526109ef816109b3565b9050919050565b7f4661696c656420746f2072657475726e2070726576696f7573206269642e0000600082015250565b6000610a2c601e836107bd565b9150610a37826109f6565b602082019050919050565b60006020820190508181036000830152610a5b81610a1f565b905091905056fea264697066735822122045e34d4b3e2e130ed2192838fedcc8d9b0cf7dd0bda128c485b86d4a89926eb664736f6c63430008180033",
  "linkReferences": {},
  "deployedLinkReferences": {}
}