{
  "_format": "hh-sol-artifact-1",
  "contractName": "NFTMarketplace",
  "sourceName": "contracts/NFTMarketplace.sol",
  "abi": [
    {
      "inputs": [],
      "name": "ReentrancyGuardReentrantCall",
      "type": "error"
    },
    {
      "anonymous": false,
      "inputs": [
        {
          "indexed": false,
          "internalType": "string",
          "name": "message",
          "type": "string"
        }
      ],
      "name": "Log",
      "type": "event"
    },
    {
      "anonymous": false,
      "inputs": [
        {
          "indexed": true,
          "internalType": "uint256",
          "name": "tokenId",
          "type": "uint256"
        },
        {
          "indexed": true,
          "internalType": "address",
          "name": "buyer",
          "type": "address"
        },
        {
          "indexed": true,
          "internalType": "address",
          "name": "seller",
          "type": "address"
        },
        {
          "indexed": false,
          "internalType": "uint256",
          "name": "price",
          "type": "uint256"
        },
        {
          "indexed": false,
          "internalType": "address",
          "name": "nftContract",
          "type": "address"
        }
      ],
      "name": "NFTBought",
      "type": "event"
    },
    {
      "anonymous": false,
      "inputs": [
        {
          "indexed": true,
          "internalType": "uint256",
          "name": "tokenId",
          "type": "uint256"
        },
        {
          "indexed": true,
          "internalType": "address",
          "name": "seller",
          "type": "address"
        },
        {
          "indexed": true,
          "internalType": "address",
          "name": "nftContract",
          "type": "address"
        }
      ],
      "name": "OfferCancelled",
      "type": "event"
    },
    {
      "anonymous": false,
      "inputs": [
        {
          "indexed": true,
          "internalType": "uint256",
          "name": "tokenId",
          "type": "uint256"
        },
        {
          "indexed": true,
          "internalType": "address",
          "name": "seller",
          "type": "address"
        },
        {
          "indexed": false,
          "internalType": "uint256",
          "name": "price",
          "type": "uint256"
        },
        {
          "indexed": true,
          "internalType": "address",
          "name": "nftContract",
          "type": "address"
        }
      ],
      "name": "OfferCreated",
      "type": "event"
    },
    {
      "inputs": [
        {
          "internalType": "uint256",
          "name": "tokenId",
          "type": "uint256"
        },
        {
          "internalType": "address",
          "name": "nftContract",
          "type": "address"
        }
      ],
      "name": "buyNFT",
      "outputs": [],
      "stateMutability": "payable",
      "type": "function"
    },
    {
      "inputs": [
        {
          "internalType": "uint256",
          "name": "tokenId",
          "type": "uint256"
        },
        {
          "internalType": "address",
          "name": "nftContract",
          "type": "address"
        }
      ],
      "name": "cancelOffer",
      "outputs": [],
      "stateMutability": "nonpayable",
      "type": "function"
    },
    {
      "inputs": [
        {
          "internalType": "address",
          "name": "nftContract",
          "type": "address"
        },
        {
          "internalType": "uint256",
          "name": "tokenId",
          "type": "uint256"
        },
        {
          "internalType": "uint256",
          "name": "price",
          "type": "uint256"
        }
      ],
      "name": "createOffer",
      "outputs": [],
      "stateMutability": "nonpayable",
      "type": "function"
    },
    {
      "inputs": [
        {
          "internalType": "uint256",
          "name": "tokenId",
          "type": "uint256"
        },
        {
          "internalType": "address",
          "name": "nftContract",
          "type": "address"
        }
      ],
      "name": "getOffer",
      "outputs": [
        {
          "components": [
            {
              "internalType": "uint256",
              "name": "tokenId",
              "type": "uint256"
            },
            {
              "internalType": "address",
              "name": "seller",
              "type": "address"
            },
            {
              "internalType": "uint256",
              "name": "price",
              "type": "uint256"
            },
            {
              "internalType": "address",
              "name": "nftContract",
              "type": "address"
            }
          ],
          "internalType": "struct NFTMarketplace.Offer",
          "name": "",
          "type": "tuple"
        }
      ],
      "stateMutability": "view",
      "type": "function"
    },
    {
      "inputs": [],
      "name": "getOffers",
      "outputs": [
        {
          "components": [
            {
              "internalType": "uint256",
              "name": "tokenId",
              "type": "uint256"
            },
            {
              "internalType": "address",
              "name": "seller",
              "type": "address"
            },
            {
              "internalType": "uint256",
              "name": "price",
              "type": "uint256"
            },
            {
              "internalType": "address",
              "name": "nftContract",
              "type": "address"
            }
          ],
          "internalType": "struct NFTMarketplace.Offer[]",
          "name": "",
          "type": "tuple[]"
        }
      ],
      "stateMutability": "view",
      "type": "function"
    },
    {
      "inputs": [
        {
          "internalType": "uint256",
          "name": "",
          "type": "uint256"
        }
      ],
      "name": "offers",
      "outputs": [
        {
          "internalType": "uint256",
          "name": "tokenId",
          "type": "uint256"
        },
        {
          "internalType": "address",
          "name": "seller",
          "type": "address"
        },
        {
          "internalType": "uint256",
          "name": "price",
          "type": "uint256"
        },
        {
          "internalType": "address",
          "name": "nftContract",
          "type": "address"
        }
      ],
      "stateMutability": "view",
      "type": "function"
    }
  ],
  "bytecode": "0x608060405234801561001057600080fd5b506001600081905550611ce5806100286000396000f3fe6080604052600436106100555760003560e01c80631c6c71281461005a5780633ee992ee146100835780638a72ea6a146100ae578063b9520ce4146100ee578063c0fc80a21461012b578063d8db47a714610154575b600080fd5b34801561006657600080fd5b50610081600480360381019061007c9190611457565b610170565b005b34801561008f57600080fd5b5061009861050a565b6040516100a591906115cc565b60405180910390f35b3480156100ba57600080fd5b506100d560048036038101906100d091906115ee565b610629565b6040516100e59493929190611639565b60405180910390f35b3480156100fa57600080fd5b506101156004803603810190610110919061167e565b6106a9565b6040516101229190611713565b60405180910390f35b34801561013757600080fd5b50610152600480360381019061014d919061167e565b6108ae565b005b61016e6004803603810190610169919061167e565b610d8c565b005b61017861131a565b3373ffffffffffffffffffffffffffffffffffffffff168373ffffffffffffffffffffffffffffffffffffffff16636352211e846040518263ffffffff1660e01b81526004016101c8919061172e565b602060405180830381865afa1580156101e5573d6000803e3d6000fd5b505050506040513d601f19601f82011682018060405250810190610209919061175e565b73ffffffffffffffffffffffffffffffffffffffff161461025f576040517f08c379a0000000000000000000000000000000000000000000000000000000008152600401610256906117e8565b60405180910390fd5b600081116102a2576040517f08c379a000000000000000000000000000000000000000000000000000000000815260040161029990611854565b60405180910390fd5b7fcf34ef537ac33ee1ac626ca1587a0a7e8e51561e5514f8cb36afa1c5102b3bab6040516102cf906118c0565b60405180910390a18273ffffffffffffffffffffffffffffffffffffffff166323b872dd3330856040518463ffffffff1660e01b8152600401610314939291906118e0565b600060405180830381600087803b15801561032e57600080fd5b505af1158015610342573d6000803e3d6000fd5b50505050600160405180608001604052808481526020013373ffffffffffffffffffffffffffffffffffffffff1681526020018381526020018573ffffffffffffffffffffffffffffffffffffffff1681525090806001815401808255809150506001900390600052602060002090600402016000909190919091506000820151816000015560208201518160010160006101000a81548173ffffffffffffffffffffffffffffffffffffffff021916908373ffffffffffffffffffffffffffffffffffffffff1602179055506040820151816002015560608201518160030160006101000a81548173ffffffffffffffffffffffffffffffffffffffff021916908373ffffffffffffffffffffffffffffffffffffffff16021790555050507fcf34ef537ac33ee1ac626ca1587a0a7e8e51561e5514f8cb36afa1c5102b3bab60405161048f90611989565b60405180910390a18273ffffffffffffffffffffffffffffffffffffffff163373ffffffffffffffffffffffffffffffffffffffff16837f38cf54506b5343346b95a1a1019c97c32eb01a3d0db0e12d4122434b1bb63705846040516104f5919061172e565b60405180910390a4610505611360565b505050565b60606001805480602002602001604051908101604052809291908181526020016000905b828210156106205783829060005260206000209060040201604051806080016040529081600082015481526020016001820160009054906101000a900473ffffffffffffffffffffffffffffffffffffffff1673ffffffffffffffffffffffffffffffffffffffff1673ffffffffffffffffffffffffffffffffffffffff168152602001600282015481526020016003820160009054906101000a900473ffffffffffffffffffffffffffffffffffffffff1673ffffffffffffffffffffffffffffffffffffffff1673ffffffffffffffffffffffffffffffffffffffff16815250508152602001906001019061052e565b50505050905090565b6001818154811061063957600080fd5b90600052602060002090600402016000915090508060000154908060010160009054906101000a900473ffffffffffffffffffffffffffffffffffffffff16908060020154908060030160009054906101000a900473ffffffffffffffffffffffffffffffffffffffff16905084565b6106b161136a565b60005b60018054905081101561086c5783600182815481106106d6576106d56119a9565b5b90600052602060002090600402016000015414801561076557508273ffffffffffffffffffffffffffffffffffffffff166001828154811061071b5761071a6119a9565b5b906000526020600020906004020160030160009054906101000a900473ffffffffffffffffffffffffffffffffffffffff1673ffffffffffffffffffffffffffffffffffffffff16145b1561085f576001818154811061077e5761077d6119a9565b5b9060005260206000209060040201604051806080016040529081600082015481526020016001820160009054906101000a900473ffffffffffffffffffffffffffffffffffffffff1673ffffffffffffffffffffffffffffffffffffffff1673ffffffffffffffffffffffffffffffffffffffff168152602001600282015481526020016003820160009054906101000a900473ffffffffffffffffffffffffffffffffffffffff1673ffffffffffffffffffffffffffffffffffffffff1673ffffffffffffffffffffffffffffffffffffffff16815250509150506108a8565b80806001019150506106b4565b506040517f08c379a000000000000000000000000000000000000000000000000000000000815260040161089f90611a24565b60405180910390fd5b92915050565b6108b661131a565b6108be61136a565b600080600090505b600180549050811015610a805784600182815481106108e8576108e76119a9565b5b90600052602060002090600402016000015414801561097757508373ffffffffffffffffffffffffffffffffffffffff166001828154811061092d5761092c6119a9565b5b906000526020600020906004020160030160009054906101000a900473ffffffffffffffffffffffffffffffffffffffff1673ffffffffffffffffffffffffffffffffffffffff16145b15610a7357600181815481106109905761098f6119a9565b5b9060005260206000209060040201604051806080016040529081600082015481526020016001820160009054906101000a900473ffffffffffffffffffffffffffffffffffffffff1673ffffffffffffffffffffffffffffffffffffffff1673ffffffffffffffffffffffffffffffffffffffff168152602001600282015481526020016003820160009054906101000a900473ffffffffffffffffffffffffffffffffffffffff1673ffffffffffffffffffffffffffffffffffffffff1673ffffffffffffffffffffffffffffffffffffffff16815250509250809150610a80565b80806001019150506108c6565b503373ffffffffffffffffffffffffffffffffffffffff16826020015173ffffffffffffffffffffffffffffffffffffffff1614610af3576040517f08c379a0000000000000000000000000000000000000000000000000000000008152600401610aea90611a90565b60405180910390fd5b8273ffffffffffffffffffffffffffffffffffffffff166323b872dd3033876040518463ffffffff1660e01b8152600401610b30939291906118e0565b600060405180830381600087803b158015610b4a57600080fd5b505af1158015610b5e573d6000803e3d6000fd5b505050506001808080549050610b749190611adf565b81548110610b8557610b846119a9565b5b906000526020600020906004020160018281548110610ba757610ba66119a9565b5b9060005260206000209060040201600082015481600001556001820160009054906101000a900473ffffffffffffffffffffffffffffffffffffffff168160010160006101000a81548173ffffffffffffffffffffffffffffffffffffffff021916908373ffffffffffffffffffffffffffffffffffffffff160217905550600282015481600201556003820160009054906101000a900473ffffffffffffffffffffffffffffffffffffffff168160030160006101000a81548173ffffffffffffffffffffffffffffffffffffffff021916908373ffffffffffffffffffffffffffffffffffffffff1602179055509050506001805480610cac57610cab611b13565b5b60019003818190600052602060002090600402016000808201600090556001820160006101000a81549073ffffffffffffffffffffffffffffffffffffffff021916905560028201600090556003820160006101000a81549073ffffffffffffffffffffffffffffffffffffffff0219169055505090558273ffffffffffffffffffffffffffffffffffffffff163373ffffffffffffffffffffffffffffffffffffffff16857f95c7640046d4e014deb7e219fc04f53725fa4e27a49c281e2744a68a367ce83c60405160405180910390a45050610d88611360565b5050565b610d9461131a565b610d9c61136a565b600080600090505b600180549050811015610f5e578460018281548110610dc657610dc56119a9565b5b906000526020600020906004020160000154148015610e5557508373ffffffffffffffffffffffffffffffffffffffff1660018281548110610e0b57610e0a6119a9565b5b906000526020600020906004020160030160009054906101000a900473ffffffffffffffffffffffffffffffffffffffff1673ffffffffffffffffffffffffffffffffffffffff16145b15610f515760018181548110610e6e57610e6d6119a9565b5b9060005260206000209060040201604051806080016040529081600082015481526020016001820160009054906101000a900473ffffffffffffffffffffffffffffffffffffffff1673ffffffffffffffffffffffffffffffffffffffff1673ffffffffffffffffffffffffffffffffffffffff168152602001600282015481526020016003820160009054906101000a900473ffffffffffffffffffffffffffffffffffffffff1673ffffffffffffffffffffffffffffffffffffffff1673ffffffffffffffffffffffffffffffffffffffff16815250509250809150610f5e565b8080600101915050610da4565b506000826040015111610fa6576040517f08c379a0000000000000000000000000000000000000000000000000000000008152600401610f9d90611b8e565b60405180910390fd5b81604001513414610fec576040517f08c379a0000000000000000000000000000000000000000000000000000000008152600401610fe390611bfa565b60405180910390fd5b7fcf34ef537ac33ee1ac626ca1587a0a7e8e51561e5514f8cb36afa1c5102b3bab60405161101990611c66565b60405180910390a18273ffffffffffffffffffffffffffffffffffffffff166323b872dd3033876040518463ffffffff1660e01b815260040161105e939291906118e0565b600060405180830381600087803b15801561107857600080fd5b505af115801561108c573d6000803e3d6000fd5b50505050816020015173ffffffffffffffffffffffffffffffffffffffff166108fc349081150290604051600060405180830381858888f193505050501580156110da573d6000803e3d6000fd5b5060018080805490506110ed9190611adf565b815481106110fe576110fd6119a9565b5b9060005260206000209060040201600182815481106111205761111f6119a9565b5b9060005260206000209060040201600082015481600001556001820160009054906101000a900473ffffffffffffffffffffffffffffffffffffffff168160010160006101000a81548173ffffffffffffffffffffffffffffffffffffffff021916908373ffffffffffffffffffffffffffffffffffffffff160217905550600282015481600201556003820160009054906101000a900473ffffffffffffffffffffffffffffffffffffffff168160030160006101000a81548173ffffffffffffffffffffffffffffffffffffffff021916908373ffffffffffffffffffffffffffffffffffffffff160217905550905050600180548061122557611224611b13565b5b60019003818190600052602060002090600402016000808201600090556001820160006101000a81549073ffffffffffffffffffffffffffffffffffffffff021916905560028201600090556003820160006101000a81549073ffffffffffffffffffffffffffffffffffffffff021916905550509055816020015173ffffffffffffffffffffffffffffffffffffffff163373ffffffffffffffffffffffffffffffffffffffff16857f04a269169e2fc053ac3e71a4c71e2afc160225619199dbb4549902ed580ddbc1856040015187604051611304929190611c86565b60405180910390a45050611316611360565b5050565b600260005403611356576040517f3ee5aeb500000000000000000000000000000000000000000000000000000000815260040160405180910390fd5b6002600081905550565b6001600081905550565b604051806080016040528060008152602001600073ffffffffffffffffffffffffffffffffffffffff16815260200160008152602001600073ffffffffffffffffffffffffffffffffffffffff1681525090565b600080fd5b600073ffffffffffffffffffffffffffffffffffffffff82169050919050565b60006113ee826113c3565b9050919050565b6113fe816113e3565b811461140957600080fd5b50565b60008135905061141b816113f5565b92915050565b6000819050919050565b61143481611421565b811461143f57600080fd5b50565b6000813590506114518161142b565b92915050565b6000806000606084860312156114705761146f6113be565b5b600061147e8682870161140c565b935050602061148f86828701611442565b92505060406114a086828701611442565b9150509250925092565b600081519050919050565b600082825260208201905092915050565b6000819050602082019050919050565b6114df81611421565b82525050565b6114ee816113e3565b82525050565b60808201600082015161150a60008501826114d6565b50602082015161151d60208501826114e5565b50604082015161153060408501826114d6565b50606082015161154360608501826114e5565b50505050565b600061155583836114f4565b60808301905092915050565b6000602082019050919050565b6000611579826114aa565b61158381856114b5565b935061158e836114c6565b8060005b838110156115bf5781516115a68882611549565b97506115b183611561565b925050600181019050611592565b5085935050505092915050565b600060208201905081810360008301526115e6818461156e565b905092915050565b600060208284031215611604576116036113be565b5b600061161284828501611442565b91505092915050565b61162481611421565b82525050565b611633816113e3565b82525050565b600060808201905061164e600083018761161b565b61165b602083018661162a565b611668604083018561161b565b611675606083018461162a565b95945050505050565b60008060408385031215611695576116946113be565b5b60006116a385828601611442565b92505060206116b48582860161140c565b9150509250929050565b6080820160008201516116d460008501826114d6565b5060208201516116e760208501826114e5565b5060408201516116fa60408501826114d6565b50606082015161170d60608501826114e5565b50505050565b600060808201905061172860008301846116be565b92915050565b6000602082019050611743600083018461161b565b92915050565b600081519050611758816113f5565b92915050565b600060208284031215611774576117736113be565b5b600061178284828501611749565b91505092915050565b600082825260208201905092915050565b7f4f6e6c79206f776e65722063616e20637265617465206f666665720000000000600082015250565b60006117d2601b8361178b565b91506117dd8261179c565b602082019050919050565b60006020820190508181036000830152611801816117c5565b9050919050565b7f5072696365206d7573742062652067726561746572207468616e207a65726f00600082015250565b600061183e601f8361178b565b915061184982611808565b602082019050919050565b6000602082019050818103600083015261186d81611831565b9050919050565b7f506173736564206f776e657220616e6420707269636520636865636b73000000600082015250565b60006118aa601d8361178b565b91506118b582611874565b602082019050919050565b600060208201905081810360008301526118d98161189d565b9050919050565b60006060820190506118f5600083018661162a565b611902602083018561162a565b61190f604083018461161b565b949350505050565b7f4e4654207472616e7366657272656420616e64206f666665722063726561746560008201527f6400000000000000000000000000000000000000000000000000000000000000602082015250565b600061197360218361178b565b915061197e82611917565b604082019050919050565b600060208201905081810360008301526119a281611966565b9050919050565b7f4e487b7100000000000000000000000000000000000000000000000000000000600052603260045260246000fd5b7f4f66666572206e6f7420666f756e640000000000000000000000000000000000600082015250565b6000611a0e600f8361178b565b9150611a19826119d8565b602082019050919050565b60006020820190508181036000830152611a3d81611a01565b9050919050565b7f4f6e6c792073656c6c65722063616e2063616e63656c206f6666657200000000600082015250565b6000611a7a601c8361178b565b9150611a8582611a44565b602082019050919050565b60006020820190508181036000830152611aa981611a6d565b9050919050565b7f4e487b7100000000000000000000000000000000000000000000000000000000600052601160045260246000fd5b6000611aea82611421565b9150611af583611421565b9250828203905081811115611b0d57611b0c611ab0565b5b92915050565b7f4e487b7100000000000000000000000000000000000000000000000000000000600052603160045260246000fd5b7f4e4654206e6f7420666f722073616c6500000000000000000000000000000000600082015250565b6000611b7860108361178b565b9150611b8382611b42565b602082019050919050565b60006020820190508181036000830152611ba781611b6b565b9050919050565b7f496e636f72726563742070726963650000000000000000000000000000000000600082015250565b6000611be4600f8361178b565b9150611bef82611bae565b602082019050919050565b60006020820190508181036000830152611c1381611bd7565b9050919050565b7f5061737365642073616c6520636865636b730000000000000000000000000000600082015250565b6000611c5060128361178b565b9150611c5b82611c1a565b602082019050919050565b60006020820190508181036000830152611c7f81611c43565b9050919050565b6000604082019050611c9b600083018561161b565b611ca8602083018461162a565b939250505056fea2646970667358221220fc2fa6163a3841f7cd5dbb8c893614db413f8fc6dbaee9385514a6ac937d892764736f6c63430008180033",
  "linkReferences": {},
  "deployedLinkReferences": {}
}