{
  "_format": "hh-sol-artifact-1",
  "contractName": "NFTWithRoyalties",
  "sourceName": "contracts/NFTWithRoyalties.sol",
  "abi": [
    {
      "inputs": [],
      "name": "ReentrancyGuardReentrantCall",
      "type": "error"
    },
    {
      "anonymous": false,
      "inputs": [
        {
          "indexed": true,
          "internalType": "address",
          "name": "nftContract",
          "type": "address"
        },
        {
          "indexed": true,
          "internalType": "uint256",
          "name": "tokenId",
          "type": "uint256"
        },
        {
          "indexed": true,
          "internalType": "address",
          "name": "from",
          "type": "address"
        },
        {
          "indexed": false,
          "internalType": "address",
          "name": "to",
          "type": "address"
        },
        {
          "indexed": false,
          "internalType": "uint256",
          "name": "salePrice",
          "type": "uint256"
        },
        {
          "indexed": false,
          "internalType": "uint256",
          "name": "royaltyAmount",
          "type": "uint256"
        }
      ],
      "name": "NFTTransferredWithRoyalty",
      "type": "event"
    },
    {
      "anonymous": false,
      "inputs": [
        {
          "indexed": true,
          "internalType": "address",
          "name": "nftContract",
          "type": "address"
        },
        {
          "indexed": true,
          "internalType": "uint256",
          "name": "tokenId",
          "type": "uint256"
        },
        {
          "indexed": true,
          "internalType": "address",
          "name": "creator",
          "type": "address"
        },
        {
          "indexed": false,
          "internalType": "uint256",
          "name": "royalty",
          "type": "uint256"
        }
      ],
      "name": "RoyaltySet",
      "type": "event"
    },
    {
      "inputs": [
        {
          "internalType": "address",
          "name": "nftContract",
          "type": "address"
        },
        {
          "internalType": "uint256",
          "name": "tokenId",
          "type": "uint256"
        }
      ],
      "name": "getRoyaltyInfo",
      "outputs": [
        {
          "internalType": "address",
          "name": "",
          "type": "address"
        },
        {
          "internalType": "uint256",
          "name": "",
          "type": "uint256"
        }
      ],
      "stateMutability": "view",
      "type": "function"
    },
    {
      "inputs": [
        {
          "internalType": "address",
          "name": "nftContract",
          "type": "address"
        },
        {
          "internalType": "uint256",
          "name": "tokenId",
          "type": "uint256"
        },
        {
          "internalType": "address",
          "name": "creator",
          "type": "address"
        },
        {
          "internalType": "uint256",
          "name": "royalty",
          "type": "uint256"
        }
      ],
      "name": "setRoyalty",
      "outputs": [],
      "stateMutability": "nonpayable",
      "type": "function"
    },
    {
      "inputs": [
        {
          "internalType": "address",
          "name": "nftContract",
          "type": "address"
        },
        {
          "internalType": "uint256",
          "name": "tokenId",
          "type": "uint256"
        },
        {
          "internalType": "address",
          "name": "from",
          "type": "address"
        },
        {
          "internalType": "address",
          "name": "to",
          "type": "address"
        }
      ],
      "name": "transferWithRoyalty",
      "outputs": [],
      "stateMutability": "payable",
      "type": "function"
    }
  ],
  "bytecode": "0x608060405234801561001057600080fd5b506001600081905550610ce5806100286000396000f3fe6080604052600436106100345760003560e01c8063773fe9861461003957806398b2a1a314610077578063e427c02414610093575b600080fd5b34801561004557600080fd5b50610060600480360381019061005b91906107c3565b6100bc565b60405161006e929190610821565b60405180910390f35b610091600480360381019061008c919061084a565b610194565b005b34801561009f57600080fd5b506100ba60048036038101906100b591906108b1565b610474565b005b6000806000600160008673ffffffffffffffffffffffffffffffffffffffff1673ffffffffffffffffffffffffffffffffffffffff16815260200190815260200160002060008581526020019081526020016000206040518060400160405290816000820160009054906101000a900473ffffffffffffffffffffffffffffffffffffffff1673ffffffffffffffffffffffffffffffffffffffff1673ffffffffffffffffffffffffffffffffffffffff16815260200160018201548152505090508060000151816020015192509250509250929050565b61019c6106da565b6000600160008673ffffffffffffffffffffffffffffffffffffffff1673ffffffffffffffffffffffffffffffffffffffff16815260200190815260200160002060008581526020019081526020016000206040518060400160405290816000820160009054906101000a900473ffffffffffffffffffffffffffffffffffffffff1673ffffffffffffffffffffffffffffffffffffffff1673ffffffffffffffffffffffffffffffffffffffff16815260200160018201548152505090506000606482602001513461026f9190610947565b61027991906109b8565b9050600073ffffffffffffffffffffffffffffffffffffffff16826000015173ffffffffffffffffffffffffffffffffffffffff16036102ee576040517f08c379a00000000000000000000000000000000000000000000000000000000081526004016102e590610a6c565b60405180910390fd5b816000015173ffffffffffffffffffffffffffffffffffffffff166108fc829081150290604051600060405180830381858888f19350505050158015610338573d6000803e3d6000fd5b508373ffffffffffffffffffffffffffffffffffffffff166108fc823461035f9190610a8c565b9081150290604051600060405180830381858888f1935050505015801561038a573d6000803e3d6000fd5b508573ffffffffffffffffffffffffffffffffffffffff166342842e0e8585886040518463ffffffff1660e01b81526004016103c893929190610ac0565b600060405180830381600087803b1580156103e257600080fd5b505af11580156103f6573d6000803e3d6000fd5b505050508373ffffffffffffffffffffffffffffffffffffffff16858773ffffffffffffffffffffffffffffffffffffffff167f7c3e2f6626e6c0266e6073bab63d054bd7342ac68f385e358ad16343acb8f6d286348660405161045c93929190610af7565b60405180910390a4505061046e610720565b50505050565b60648111156104b8576040517f08c379a00000000000000000000000000000000000000000000000000000000081526004016104af90610ba0565b60405180910390fd5b3373ffffffffffffffffffffffffffffffffffffffff168473ffffffffffffffffffffffffffffffffffffffff16636352211e856040518263ffffffff1660e01b81526004016105089190610bc0565b602060405180830381865afa158015610525573d6000803e3d6000fd5b505050506040513d601f19601f820116820180604052508101906105499190610bf0565b73ffffffffffffffffffffffffffffffffffffffff161461059f576040517f08c379a000000000000000000000000000000000000000000000000000000000815260040161059690610c8f565b60405180910390fd5b60405180604001604052808373ffffffffffffffffffffffffffffffffffffffff16815260200182815250600160008673ffffffffffffffffffffffffffffffffffffffff1673ffffffffffffffffffffffffffffffffffffffff168152602001908152602001600020600085815260200190815260200160002060008201518160000160006101000a81548173ffffffffffffffffffffffffffffffffffffffff021916908373ffffffffffffffffffffffffffffffffffffffff160217905550602082015181600101559050508173ffffffffffffffffffffffffffffffffffffffff16838573ffffffffffffffffffffffffffffffffffffffff167f4b14b1cc1cbf30a0f79f6a6c828fd10766bf5c7d49f6a19b21b98e764a4f4bb1846040516106cc9190610bc0565b60405180910390a450505050565b600260005403610716576040517f3ee5aeb500000000000000000000000000000000000000000000000000000000815260040160405180910390fd5b6002600081905550565b6001600081905550565b600080fd5b600073ffffffffffffffffffffffffffffffffffffffff82169050919050565b600061075a8261072f565b9050919050565b61076a8161074f565b811461077557600080fd5b50565b60008135905061078781610761565b92915050565b6000819050919050565b6107a08161078d565b81146107ab57600080fd5b50565b6000813590506107bd81610797565b92915050565b600080604083850312156107da576107d961072a565b5b60006107e885828601610778565b92505060206107f9858286016107ae565b9150509250929050565b61080c8161074f565b82525050565b61081b8161078d565b82525050565b60006040820190506108366000830185610803565b6108436020830184610812565b9392505050565b600080600080608085870312156108645761086361072a565b5b600061087287828801610778565b9450506020610883878288016107ae565b935050604061089487828801610778565b92505060606108a587828801610778565b91505092959194509250565b600080600080608085870312156108cb576108ca61072a565b5b60006108d987828801610778565b94505060206108ea878288016107ae565b93505060406108fb87828801610778565b925050606061090c878288016107ae565b91505092959194509250565b7f4e487b7100000000000000000000000000000000000000000000000000000000600052601160045260246000fd5b60006109528261078d565b915061095d8361078d565b925082820261096b8161078d565b9150828204841483151761098257610981610918565b5b5092915050565b7f4e487b7100000000000000000000000000000000000000000000000000000000600052601260045260246000fd5b60006109c38261078d565b91506109ce8361078d565b9250826109de576109dd610989565b5b828204905092915050565b600082825260208201905092915050565b7f526f79616c747920696e666f206e6f742073657420666f72207468697320746f60008201527f6b656e0000000000000000000000000000000000000000000000000000000000602082015250565b6000610a566023836109e9565b9150610a61826109fa565b604082019050919050565b60006020820190508181036000830152610a8581610a49565b9050919050565b6000610a978261078d565b9150610aa28361078d565b9250828203905081811115610aba57610ab9610918565b5b92915050565b6000606082019050610ad56000830186610803565b610ae26020830185610803565b610aef6040830184610812565b949350505050565b6000606082019050610b0c6000830186610803565b610b196020830185610812565b610b266040830184610812565b949350505050565b7f526f79616c74792070657263656e746167652063616e6e6f74206265206d6f7260008201527f65207468616e2031303000000000000000000000000000000000000000000000602082015250565b6000610b8a602a836109e9565b9150610b9582610b2e565b604082019050919050565b60006020820190508181036000830152610bb981610b7d565b9050919050565b6000602082019050610bd56000830184610812565b92915050565b600081519050610bea81610761565b92915050565b600060208284031215610c0657610c0561072a565b5b6000610c1484828501610bdb565b91505092915050565b7f4f6e6c7920746865206f776e65722063616e207365742074686520726f79616c60008201527f7479000000000000000000000000000000000000000000000000000000000000602082015250565b6000610c796022836109e9565b9150610c8482610c1d565b604082019050919050565b60006020820190508181036000830152610ca881610c6c565b905091905056fea2646970667358221220cddc5d50767da942c7914ea966426a61b4669f3973360478f07aa064b4f511e164736f6c63430008180033",
  "linkReferences": {},
  "deployedLinkReferences": {}
}