{
  "_format": "hh-sol-artifact-1",
  "contractName": "NFTWithRoyalties",
  "sourceName": "contracts/NFTWithRoyalties.sol",
  "abi": [
    {
      "inputs": [
        {
          "internalType": "string",
          "name": "name",
          "type": "string"
        },
        {
          "internalType": "string",
          "name": "symbol",
          "type": "string"
        }
      ],
      "stateMutability": "nonpayable",
      "type": "constructor"
    },
    {
      "inputs": [
        {
          "internalType": "address",
          "name": "sender",
          "type": "address"
        },
        {
          "internalType": "uint256",
          "name": "tokenId",
          "type": "uint256"
        },
        {
          "internalType": "address",
          "name": "owner",
          "type": "address"
        }
      ],
      "name": "ERC721IncorrectOwner",
      "type": "error"
    },
    {
      "inputs": [
        {
          "internalType": "address",
          "name": "operator",
          "type": "address"
        },
        {
          "internalType": "uint256",
          "name": "tokenId",
          "type": "uint256"
        }
      ],
      "name": "ERC721InsufficientApproval",
      "type": "error"
    },
    {
      "inputs": [
        {
          "internalType": "address",
          "name": "approver",
          "type": "address"
        }
      ],
      "name": "ERC721InvalidApprover",
      "type": "error"
    },
    {
      "inputs": [
        {
          "internalType": "address",
          "name": "operator",
          "type": "address"
        }
      ],
      "name": "ERC721InvalidOperator",
      "type": "error"
    },
    {
      "inputs": [
        {
          "internalType": "address",
          "name": "owner",
          "type": "address"
        }
      ],
      "name": "ERC721InvalidOwner",
      "type": "error"
    },
    {
      "inputs": [
        {
          "internalType": "address",
          "name": "receiver",
          "type": "address"
        }
      ],
      "name": "ERC721InvalidReceiver",
      "type": "error"
    },
    {
      "inputs": [
        {
          "internalType": "address",
          "name": "sender",
          "type": "address"
        }
      ],
      "name": "ERC721InvalidSender",
      "type": "error"
    },
    {
      "inputs": [
        {
          "internalType": "uint256",
          "name": "tokenId",
          "type": "uint256"
        }
      ],
      "name": "ERC721NonexistentToken",
      "type": "error"
    },
    {
      "anonymous": false,
      "inputs": [
        {
          "indexed": true,
          "internalType": "address",
          "name": "owner",
          "type": "address"
        },
        {
          "indexed": true,
          "internalType": "address",
          "name": "approved",
          "type": "address"
        },
        {
          "indexed": true,
          "internalType": "uint256",
          "name": "tokenId",
          "type": "uint256"
        }
      ],
      "name": "Approval",
      "type": "event"
    },
    {
      "anonymous": false,
      "inputs": [
        {
          "indexed": true,
          "internalType": "address",
          "name": "owner",
          "type": "address"
        },
        {
          "indexed": true,
          "internalType": "address",
          "name": "operator",
          "type": "address"
        },
        {
          "indexed": false,
          "internalType": "bool",
          "name": "approved",
          "type": "bool"
        }
      ],
      "name": "ApprovalForAll",
      "type": "event"
    },
    {
      "anonymous": false,
      "inputs": [
        {
          "indexed": true,
          "internalType": "address",
          "name": "from",
          "type": "address"
        },
        {
          "indexed": true,
          "internalType": "address",
          "name": "to",
          "type": "address"
        },
        {
          "indexed": true,
          "internalType": "uint256",
          "name": "tokenId",
          "type": "uint256"
        }
      ],
      "name": "Transfer",
      "type": "event"
    },
    {
      "inputs": [
        {
          "internalType": "address",
          "name": "to",
          "type": "address"
        },
        {
          "internalType": "uint256",
          "name": "tokenId",
          "type": "uint256"
        }
      ],
      "name": "approve",
      "outputs": [],
      "stateMutability": "nonpayable",
      "type": "function"
    },
    {
      "inputs": [
        {
          "internalType": "address",
          "name": "owner",
          "type": "address"
        }
      ],
      "name": "balanceOf",
      "outputs": [
        {
          "internalType": "uint256",
          "name": "",
          "type": "uint256"
        }
      ],
      "stateMutability": "view",
      "type": "function"
    },
    {
      "inputs": [
        {
          "internalType": "uint256",
          "name": "tokenId",
          "type": "uint256"
        }
      ],
      "name": "getApproved",
      "outputs": [
        {
          "internalType": "address",
          "name": "",
          "type": "address"
        }
      ],
      "stateMutability": "view",
      "type": "function"
    },
    {
      "inputs": [
        {
          "internalType": "address",
          "name": "owner",
          "type": "address"
        },
        {
          "internalType": "address",
          "name": "operator",
          "type": "address"
        }
      ],
      "name": "isApprovedForAll",
      "outputs": [
        {
          "internalType": "bool",
          "name": "",
          "type": "bool"
        }
      ],
      "stateMutability": "view",
      "type": "function"
    },
    {
      "inputs": [
        {
          "internalType": "address",
          "name": "to",
          "type": "address"
        },
        {
          "internalType": "uint256",
          "name": "tokenId",
          "type": "uint256"
        },
        {
          "internalType": "uint256",
          "name": "royalty",
          "type": "uint256"
        }
      ],
      "name": "mint",
      "outputs": [],
      "stateMutability": "nonpayable",
      "type": "function"
    },
    {
      "inputs": [],
      "name": "name",
      "outputs": [
        {
          "internalType": "string",
          "name": "",
          "type": "string"
        }
      ],
      "stateMutability": "view",
      "type": "function"
    },
    {
      "inputs": [
        {
          "internalType": "uint256",
          "name": "tokenId",
          "type": "uint256"
        }
      ],
      "name": "ownerOf",
      "outputs": [
        {
          "internalType": "address",
          "name": "",
          "type": "address"
        }
      ],
      "stateMutability": "view",
      "type": "function"
    },
    {
      "inputs": [
        {
          "internalType": "address",
          "name": "from",
          "type": "address"
        },
        {
          "internalType": "address",
          "name": "to",
          "type": "address"
        },
        {
          "internalType": "uint256",
          "name": "tokenId",
          "type": "uint256"
        }
      ],
      "name": "safeTransferFrom",
      "outputs": [],
      "stateMutability": "nonpayable",
      "type": "function"
    },
    {
      "inputs": [
        {
          "internalType": "address",
          "name": "from",
          "type": "address"
        },
        {
          "internalType": "address",
          "name": "to",
          "type": "address"
        },
        {
          "internalType": "uint256",
          "name": "tokenId",
          "type": "uint256"
        },
        {
          "internalType": "bytes",
          "name": "data",
          "type": "bytes"
        }
      ],
      "name": "safeTransferFrom",
      "outputs": [],
      "stateMutability": "nonpayable",
      "type": "function"
    },
    {
      "inputs": [
        {
          "internalType": "address",
          "name": "operator",
          "type": "address"
        },
        {
          "internalType": "bool",
          "name": "approved",
          "type": "bool"
        }
      ],
      "name": "setApprovalForAll",
      "outputs": [],
      "stateMutability": "nonpayable",
      "type": "function"
    },
    {
      "inputs": [
        {
          "internalType": "bytes4",
          "name": "interfaceId",
          "type": "bytes4"
        }
      ],
      "name": "supportsInterface",
      "outputs": [
        {
          "internalType": "bool",
          "name": "",
          "type": "bool"
        }
      ],
      "stateMutability": "view",
      "type": "function"
    },
    {
      "inputs": [],
      "name": "symbol",
      "outputs": [
        {
          "internalType": "string",
          "name": "",
          "type": "string"
        }
      ],
      "stateMutability": "view",
      "type": "function"
    },
    {
      "inputs": [
        {
          "internalType": "uint256",
          "name": "tokenId",
          "type": "uint256"
        }
      ],
      "name": "tokenURI",
      "outputs": [
        {
          "internalType": "string",
          "name": "",
          "type": "string"
        }
      ],
      "stateMutability": "view",
      "type": "function"
    },
    {
      "inputs": [
        {
          "internalType": "address",
          "name": "from",
          "type": "address"
        },
        {
          "internalType": "address",
          "name": "to",
          "type": "address"
        },
        {
          "internalType": "uint256",
          "name": "tokenId",
          "type": "uint256"
        }
      ],
      "name": "transferFrom",
      "outputs": [],
      "stateMutability": "nonpayable",
      "type": "function"
    },
    {
      "inputs": [
        {
          "internalType": "address",
          "name": "from",
          "type": "address"
        },
        {
          "internalType": "address",
          "name": "to",
          "type": "address"
        },
        {
          "internalType": "uint256",
          "name": "tokenId",
          "type": "uint256"
        }
      ],
      "name": "transferWithRoyalty",
      "outputs": [],
      "stateMutability": "payable",
      "type": "function"
    }
  ],
  "bytecode": "0x60806040523480156200001157600080fd5b50604051620026eb380380620026eb8339818101604052810190620000379190620001fa565b818181600090816200004a9190620004ca565b5080600190816200005c9190620004ca565b5050505050620005b1565b6000604051905090565b600080fd5b600080fd5b600080fd5b600080fd5b6000601f19601f8301169050919050565b7f4e487b7100000000000000000000000000000000000000000000000000000000600052604160045260246000fd5b620000d08262000085565b810181811067ffffffffffffffff82111715620000f257620000f162000096565b5b80604052505050565b60006200010762000067565b9050620001158282620000c5565b919050565b600067ffffffffffffffff82111562000138576200013762000096565b5b620001438262000085565b9050602081019050919050565b60005b838110156200017057808201518184015260208101905062000153565b60008484015250505050565b6000620001936200018d846200011a565b620000fb565b905082815260208101848484011115620001b257620001b162000080565b5b620001bf84828562000150565b509392505050565b600082601f830112620001df57620001de6200007b565b5b8151620001f18482602086016200017c565b91505092915050565b6000806040838503121562000214576200021362000071565b5b600083015167ffffffffffffffff81111562000235576200023462000076565b5b6200024385828601620001c7565b925050602083015167ffffffffffffffff81111562000267576200026662000076565b5b6200027585828601620001c7565b9150509250929050565b600081519050919050565b7f4e487b7100000000000000000000000000000000000000000000000000000000600052602260045260246000fd5b60006002820490506001821680620002d257607f821691505b602082108103620002e857620002e76200028a565b5b50919050565b60008190508160005260206000209050919050565b60006020601f8301049050919050565b600082821b905092915050565b600060088302620003527fffffffffffffffffffffffffffffffffffffffffffffffffffffffffffffffff8262000313565b6200035e868362000313565b95508019841693508086168417925050509392505050565b6000819050919050565b6000819050919050565b6000620003ab620003a56200039f8462000376565b62000380565b62000376565b9050919050565b6000819050919050565b620003c7836200038a565b620003df620003d682620003b2565b84845462000320565b825550505050565b600090565b620003f6620003e7565b62000403818484620003bc565b505050565b5b818110156200042b576200041f600082620003ec565b60018101905062000409565b5050565b601f8211156200047a576200044481620002ee565b6200044f8462000303565b810160208510156200045f578190505b620004776200046e8562000303565b83018262000408565b50505b505050565b600082821c905092915050565b60006200049f600019846008026200047f565b1980831691505092915050565b6000620004ba83836200048c565b9150826002028217905092915050565b620004d5826200027f565b67ffffffffffffffff811115620004f157620004f062000096565b5b620004fd8254620002b9565b6200050a8282856200042f565b600060209050601f8311600181146200054257600084156200052d578287015190505b620005398582620004ac565b865550620005a9565b601f1984166200055286620002ee565b60005b828110156200057c5784890151825560018201915060208501945060208101905062000555565b868310156200059c578489015162000598601f8916826200048c565b8355505b6001600288020188555050505b505050505050565b61212a80620005c16000396000f3fe6080604052600436106100e85760003560e01c806342842e0e1161008a578063a22cb46511610059578063a22cb465146102f7578063b88d4fde14610320578063c87b56dd14610349578063e985e9c514610386576100e8565b806342842e0e146102295780636352211e1461025257806370a082311461028f57806395d89b41146102cc576100e8565b8063095ea7b3116100c6578063095ea7b314610192578063156e29f6146101bb57806323b872dd146101e45780632c74a40e1461020d576100e8565b806301ffc9a7146100ed57806306fdde031461012a578063081812fc14610155575b600080fd5b3480156100f957600080fd5b50610114600480360381019061010f919061184b565b6103c3565b6040516101219190611893565b60405180910390f35b34801561013657600080fd5b5061013f6104a5565b60405161014c919061193e565b60405180910390f35b34801561016157600080fd5b5061017c60048036038101906101779190611996565b610537565b6040516101899190611a04565b60405180910390f35b34801561019e57600080fd5b506101b960048036038101906101b49190611a4b565b610553565b005b3480156101c757600080fd5b506101e260048036038101906101dd9190611a8b565b610569565b005b3480156101f057600080fd5b5061020b60048036038101906102069190611ade565b6105e2565b005b61022760048036038101906102229190611ade565b6106e4565b005b34801561023557600080fd5b50610250600480360381019061024b9190611ade565b6107f0565b005b34801561025e57600080fd5b5061027960048036038101906102749190611996565b610810565b6040516102869190611a04565b60405180910390f35b34801561029b57600080fd5b506102b660048036038101906102b19190611b31565b610822565b6040516102c39190611b6d565b60405180910390f35b3480156102d857600080fd5b506102e16108dc565b6040516102ee919061193e565b60405180910390f35b34801561030357600080fd5b5061031e60048036038101906103199190611bb4565b61096e565b005b34801561032c57600080fd5b5061034760048036038101906103429190611d29565b610984565b005b34801561035557600080fd5b50610370600480360381019061036b9190611996565b6109a1565b60405161037d919061193e565b60405180910390f35b34801561039257600080fd5b506103ad60048036038101906103a89190611dac565b610a0a565b6040516103ba9190611893565b60405180910390f35b60007f80ac58cd000000000000000000000000000000000000000000000000000000007bffffffffffffffffffffffffffffffffffffffffffffffffffffffff1916827bffffffffffffffffffffffffffffffffffffffffffffffffffffffff1916148061048e57507f5b5e139f000000000000000000000000000000000000000000000000000000007bffffffffffffffffffffffffffffffffffffffffffffffffffffffff1916827bffffffffffffffffffffffffffffffffffffffffffffffffffffffff1916145b8061049e575061049d82610a9e565b5b9050919050565b6060600080546104b490611e1b565b80601f01602080910402602001604051908101604052809291908181526020018280546104e090611e1b565b801561052d5780601f106105025761010080835404028352916020019161052d565b820191906000526020600020905b81548152906001019060200180831161051057829003601f168201915b5050505050905090565b600061054282610b08565b5061054c82610b90565b9050919050565b6105658282610560610bcd565b610bd5565b5050565b6105738383610be7565b336006600084815260200190815260200160002060006101000a81548173ffffffffffffffffffffffffffffffffffffffff021916908373ffffffffffffffffffffffffffffffffffffffff160217905550806007600084815260200190815260200160002081905550505050565b600073ffffffffffffffffffffffffffffffffffffffff168273ffffffffffffffffffffffffffffffffffffffff16036106545760006040517f64a0ae9200000000000000000000000000000000000000000000000000000000815260040161064b9190611a04565b60405180910390fd5b60006106688383610663610bcd565b610ce0565b90508373ffffffffffffffffffffffffffffffffffffffff168173ffffffffffffffffffffffffffffffffffffffff16146106de578382826040517f64283d7b0000000000000000000000000000000000000000000000000000000081526004016106d593929190611e4c565b60405180910390fd5b50505050565b600060646007600084815260200190815260200160002054346107079190611eb2565b6107119190611f23565b90506006600083815260200190815260200160002060009054906101000a900473ffffffffffffffffffffffffffffffffffffffff1673ffffffffffffffffffffffffffffffffffffffff166108fc829081150290604051600060405180830381858888f1935050505015801561078c573d6000803e3d6000fd5b508373ffffffffffffffffffffffffffffffffffffffff166108fc82346107b39190611f54565b9081150290604051600060405180830381858888f193505050501580156107de573d6000803e3d6000fd5b506107ea8484846107f0565b50505050565b61080b83838360405180602001604052806000815250610984565b505050565b600061081b82610b08565b9050919050565b60008073ffffffffffffffffffffffffffffffffffffffff168273ffffffffffffffffffffffffffffffffffffffff16036108955760006040517f89c62b6400000000000000000000000000000000000000000000000000000000815260040161088c9190611a04565b60405180910390fd5b600360008373ffffffffffffffffffffffffffffffffffffffff1673ffffffffffffffffffffffffffffffffffffffff168152602001908152602001600020549050919050565b6060600180546108eb90611e1b565b80601f016020809104026020016040519081016040528092919081815260200182805461091790611e1b565b80156109645780601f1061093957610100808354040283529160200191610964565b820191906000526020600020905b81548152906001019060200180831161094757829003601f168201915b5050505050905090565b610980610979610bcd565b8383610efa565b5050565b61098f8484846105e2565b61099b84848484611069565b50505050565b60606109ac82610b08565b5060006109b7611220565b905060008151116109d75760405180602001604052806000815250610a02565b806109e184611237565b6040516020016109f2929190611fc4565b6040516020818303038152906040525b915050919050565b6000600560008473ffffffffffffffffffffffffffffffffffffffff1673ffffffffffffffffffffffffffffffffffffffff16815260200190815260200160002060008373ffffffffffffffffffffffffffffffffffffffff1673ffffffffffffffffffffffffffffffffffffffff16815260200190815260200160002060009054906101000a900460ff16905092915050565b60007f01ffc9a7000000000000000000000000000000000000000000000000000000007bffffffffffffffffffffffffffffffffffffffffffffffffffffffff1916827bffffffffffffffffffffffffffffffffffffffffffffffffffffffff1916149050919050565b600080610b1483611305565b9050600073ffffffffffffffffffffffffffffffffffffffff168173ffffffffffffffffffffffffffffffffffffffff1603610b8757826040517f7e273289000000000000000000000000000000000000000000000000000000008152600401610b7e9190611b6d565b60405180910390fd5b80915050919050565b60006004600083815260200190815260200160002060009054906101000a900473ffffffffffffffffffffffffffffffffffffffff169050919050565b600033905090565b610be28383836001611342565b505050565b600073ffffffffffffffffffffffffffffffffffffffff168273ffffffffffffffffffffffffffffffffffffffff1603610c595760006040517f64a0ae92000000000000000000000000000000000000000000000000000000008152600401610c509190611a04565b60405180910390fd5b6000610c6783836000610ce0565b9050600073ffffffffffffffffffffffffffffffffffffffff168173ffffffffffffffffffffffffffffffffffffffff1614610cdb5760006040517f73c6ac6e000000000000000000000000000000000000000000000000000000008152600401610cd29190611a04565b60405180910390fd5b505050565b600080610cec84611305565b9050600073ffffffffffffffffffffffffffffffffffffffff168373ffffffffffffffffffffffffffffffffffffffff1614610d2e57610d2d818486611507565b5b600073ffffffffffffffffffffffffffffffffffffffff168173ffffffffffffffffffffffffffffffffffffffff1614610dbf57610d70600085600080611342565b6001600360008373ffffffffffffffffffffffffffffffffffffffff1673ffffffffffffffffffffffffffffffffffffffff168152602001908152602001600020600082825403925050819055505b600073ffffffffffffffffffffffffffffffffffffffff168573ffffffffffffffffffffffffffffffffffffffff1614610e42576001600360008773ffffffffffffffffffffffffffffffffffffffff1673ffffffffffffffffffffffffffffffffffffffff168152602001908152602001600020600082825401925050819055505b846002600086815260200190815260200160002060006101000a81548173ffffffffffffffffffffffffffffffffffffffff021916908373ffffffffffffffffffffffffffffffffffffffff160217905550838573ffffffffffffffffffffffffffffffffffffffff168273ffffffffffffffffffffffffffffffffffffffff167fddf252ad1be2c89b69c2b068fc378daa952ba7f163c4a11628f55a4df523b3ef60405160405180910390a4809150509392505050565b600073ffffffffffffffffffffffffffffffffffffffff168273ffffffffffffffffffffffffffffffffffffffff1603610f6b57816040517f5b08ba18000000000000000000000000000000000000000000000000000000008152600401610f629190611a04565b60405180910390fd5b80600560008573ffffffffffffffffffffffffffffffffffffffff1673ffffffffffffffffffffffffffffffffffffffff16815260200190815260200160002060008473ffffffffffffffffffffffffffffffffffffffff1673ffffffffffffffffffffffffffffffffffffffff16815260200190815260200160002060006101000a81548160ff0219169083151502179055508173ffffffffffffffffffffffffffffffffffffffff168373ffffffffffffffffffffffffffffffffffffffff167f17307eab39ab6107e8899845ad3d59bd9653f200f220920489ca2b5937696c318360405161105c9190611893565b60405180910390a3505050565b60008373ffffffffffffffffffffffffffffffffffffffff163b111561121a578273ffffffffffffffffffffffffffffffffffffffff1663150b7a026110ad610bcd565b8685856040518563ffffffff1660e01b81526004016110cf949392919061203d565b6020604051808303816000875af192505050801561110b57506040513d601f19601f82011682018060405250810190611108919061209e565b60015b61118f573d806000811461113b576040519150601f19603f3d011682016040523d82523d6000602084013e611140565b606091505b50600081510361118757836040517f64a0ae9200000000000000000000000000000000000000000000000000000000815260040161117e9190611a04565b60405180910390fd5b805181602001fd5b63150b7a0260e01b7bffffffffffffffffffffffffffffffffffffffffffffffffffffffff1916817bffffffffffffffffffffffffffffffffffffffffffffffffffffffff19161461121857836040517f64a0ae9200000000000000000000000000000000000000000000000000000000815260040161120f9190611a04565b60405180910390fd5b505b50505050565b606060405180602001604052806000815250905090565b606060006001611246846115cb565b01905060008167ffffffffffffffff81111561126557611264611bfe565b5b6040519080825280601f01601f1916602001820160405280156112975781602001600182028036833780820191505090505b509050600082602001820190505b6001156112fa578080600190039150507f3031323334353637383961626364656600000000000000000000000000000000600a86061a8153600a85816112ee576112ed611ef4565b5b049450600085036112a5575b819350505050919050565b60006002600083815260200190815260200160002060009054906101000a900473ffffffffffffffffffffffffffffffffffffffff169050919050565b808061137b5750600073ffffffffffffffffffffffffffffffffffffffff168273ffffffffffffffffffffffffffffffffffffffff1614155b156114af57600061138b84610b08565b9050600073ffffffffffffffffffffffffffffffffffffffff168373ffffffffffffffffffffffffffffffffffffffff16141580156113f657508273ffffffffffffffffffffffffffffffffffffffff168173ffffffffffffffffffffffffffffffffffffffff1614155b801561140957506114078184610a0a565b155b1561144b57826040517fa9fbf51f0000000000000000000000000000000000000000000000000000000081526004016114429190611a04565b60405180910390fd5b81156114ad57838573ffffffffffffffffffffffffffffffffffffffff168273ffffffffffffffffffffffffffffffffffffffff167f8c5be1e5ebec7d5bd14f71427d1e84f3dd0314c0f7b2291e5b200ac8c7c3b92560405160405180910390a45b505b836004600085815260200190815260200160002060006101000a81548173ffffffffffffffffffffffffffffffffffffffff021916908373ffffffffffffffffffffffffffffffffffffffff16021790555050505050565b61151283838361171e565b6115c657600073ffffffffffffffffffffffffffffffffffffffff168373ffffffffffffffffffffffffffffffffffffffff160361158757806040517f7e27328900000000000000000000000000000000000000000000000000000000815260040161157e9190611b6d565b60405180910390fd5b81816040517f177e802f0000000000000000000000000000000000000000000000000000000081526004016115bd9291906120cb565b60405180910390fd5b505050565b600080600090507a184f03e93ff9f4daa797ed6e38ed64bf6a1f0100000000000000008310611629577a184f03e93ff9f4daa797ed6e38ed64bf6a1f010000000000000000838161161f5761161e611ef4565b5b0492506040810190505b6d04ee2d6d415b85acef81000000008310611666576d04ee2d6d415b85acef8100000000838161165c5761165b611ef4565b5b0492506020810190505b662386f26fc10000831061169557662386f26fc10000838161168b5761168a611ef4565b5b0492506010810190505b6305f5e10083106116be576305f5e10083816116b4576116b3611ef4565b5b0492506008810190505b61271083106116e35761271083816116d9576116d8611ef4565b5b0492506004810190505b6064831061170657606483816116fc576116fb611ef4565b5b0492506002810190505b600a8310611715576001810190505b80915050919050565b60008073ffffffffffffffffffffffffffffffffffffffff168373ffffffffffffffffffffffffffffffffffffffff16141580156117d657508273ffffffffffffffffffffffffffffffffffffffff168473ffffffffffffffffffffffffffffffffffffffff16148061179757506117968484610a0a565b5b806117d557508273ffffffffffffffffffffffffffffffffffffffff166117bd83610b90565b73ffffffffffffffffffffffffffffffffffffffff16145b5b90509392505050565b6000604051905090565b600080fd5b600080fd5b60007fffffffff0000000000000000000000000000000000000000000000000000000082169050919050565b611828816117f3565b811461183357600080fd5b50565b6000813590506118458161181f565b92915050565b600060208284031215611861576118606117e9565b5b600061186f84828501611836565b91505092915050565b60008115159050919050565b61188d81611878565b82525050565b60006020820190506118a86000830184611884565b92915050565b600081519050919050565b600082825260208201905092915050565b60005b838110156118e85780820151818401526020810190506118cd565b60008484015250505050565b6000601f19601f8301169050919050565b6000611910826118ae565b61191a81856118b9565b935061192a8185602086016118ca565b611933816118f4565b840191505092915050565b600060208201905081810360008301526119588184611905565b905092915050565b6000819050919050565b61197381611960565b811461197e57600080fd5b50565b6000813590506119908161196a565b92915050565b6000602082840312156119ac576119ab6117e9565b5b60006119ba84828501611981565b91505092915050565b600073ffffffffffffffffffffffffffffffffffffffff82169050919050565b60006119ee826119c3565b9050919050565b6119fe816119e3565b82525050565b6000602082019050611a1960008301846119f5565b92915050565b611a28816119e3565b8114611a3357600080fd5b50565b600081359050611a4581611a1f565b92915050565b60008060408385031215611a6257611a616117e9565b5b6000611a7085828601611a36565b9250506020611a8185828601611981565b9150509250929050565b600080600060608486031215611aa457611aa36117e9565b5b6000611ab286828701611a36565b9350506020611ac386828701611981565b9250506040611ad486828701611981565b9150509250925092565b600080600060608486031215611af757611af66117e9565b5b6000611b0586828701611a36565b9350506020611b1686828701611a36565b9250506040611b2786828701611981565b9150509250925092565b600060208284031215611b4757611b466117e9565b5b6000611b5584828501611a36565b91505092915050565b611b6781611960565b82525050565b6000602082019050611b826000830184611b5e565b92915050565b611b9181611878565b8114611b9c57600080fd5b50565b600081359050611bae81611b88565b92915050565b60008060408385031215611bcb57611bca6117e9565b5b6000611bd985828601611a36565b9250506020611bea85828601611b9f565b9150509250929050565b600080fd5b600080fd5b7f4e487b7100000000000000000000000000000000000000000000000000000000600052604160045260246000fd5b611c36826118f4565b810181811067ffffffffffffffff82111715611c5557611c54611bfe565b5b80604052505050565b6000611c686117df565b9050611c748282611c2d565b919050565b600067ffffffffffffffff821115611c9457611c93611bfe565b5b611c9d826118f4565b9050602081019050919050565b82818337600083830152505050565b6000611ccc611cc784611c79565b611c5e565b905082815260208101848484011115611ce857611ce7611bf9565b5b611cf3848285611caa565b509392505050565b600082601f830112611d1057611d0f611bf4565b5b8135611d20848260208601611cb9565b91505092915050565b60008060008060808587031215611d4357611d426117e9565b5b6000611d5187828801611a36565b9450506020611d6287828801611a36565b9350506040611d7387828801611981565b925050606085013567ffffffffffffffff811115611d9457611d936117ee565b5b611da087828801611cfb565b91505092959194509250565b60008060408385031215611dc357611dc26117e9565b5b6000611dd185828601611a36565b9250506020611de285828601611a36565b9150509250929050565b7f4e487b7100000000000000000000000000000000000000000000000000000000600052602260045260246000fd5b60006002820490506001821680611e3357607f821691505b602082108103611e4657611e45611dec565b5b50919050565b6000606082019050611e6160008301866119f5565b611e6e6020830185611b5e565b611e7b60408301846119f5565b949350505050565b7f4e487b7100000000000000000000000000000000000000000000000000000000600052601160045260246000fd5b6000611ebd82611960565b9150611ec883611960565b9250828202611ed681611960565b91508282048414831517611eed57611eec611e83565b5b5092915050565b7f4e487b7100000000000000000000000000000000000000000000000000000000600052601260045260246000fd5b6000611f2e82611960565b9150611f3983611960565b925082611f4957611f48611ef4565b5b828204905092915050565b6000611f5f82611960565b9150611f6a83611960565b9250828203905081811115611f8257611f81611e83565b5b92915050565b600081905092915050565b6000611f9e826118ae565b611fa88185611f88565b9350611fb88185602086016118ca565b80840191505092915050565b6000611fd08285611f93565b9150611fdc8284611f93565b91508190509392505050565b600081519050919050565b600082825260208201905092915050565b600061200f82611fe8565b6120198185611ff3565b93506120298185602086016118ca565b612032816118f4565b840191505092915050565b600060808201905061205260008301876119f5565b61205f60208301866119f5565b61206c6040830185611b5e565b818103606083015261207e8184612004565b905095945050505050565b6000815190506120988161181f565b92915050565b6000602082840312156120b4576120b36117e9565b5b60006120c284828501612089565b91505092915050565b60006040820190506120e060008301856119f5565b6120ed6020830184611b5e565b939250505056fea26469706673582212205797b6ac947820446e4e648a7d3204cf13acd177d45ab30c020ffa2fd29f12ba64736f6c63430008180033",
  "linkReferences": {},
  "deployedLinkReferences": {}
}